:1000000052C090C16BC06AC069C068C067C066C09A
:1000100065C064C0D8C262C061C060C05FC0040374
:1000200009041203450074006800650072006B004B
:100030006900740012034F00700065006E005100EB
:1000400052005300530012011001FF000008C016B7
:10005000DC0500010102000109021200010100801B
:1000600032090400000000000000FF8080808080D2
:1000700080808080808080E08094FC7C3C1C0C042C
:1000800084C4E4F48080808C8032806088A89040B2
:1000900028D0082078B048E0A0F068D85010C030D0
:1000A000187098B8C80011241FBECFE5D2E0DEBF9B
:1000B000CDBF10E0A0E6B0E0EAEDFDE002C00590A3
:1000C0000D92AC38B107D9F710E0ACE8B0E001C050
:1000D0001D92A83DB107E1F721D37DC691CF1F93B3
:1000E000CF93DF938091AF00835087FD7EC09091C6
:1000F000AC002091AB002D3209F075C0883009F0BA
:1001000072C0CCE0D0E0C91BD109CD54DF4F83ECE5
:1001100080939F008AE58093600010928C00888114
:10012000807619F0CE0174D255C09A811092A80041
:100130008981882331F41092A90028EA30E082E016
:1001400045C0853019F49093B00036C0863059F51B
:100150008B81813019F486E490E01AC0823019F462
:1001600088E590E015C08330C9F4992341F48EE10D
:1001700090E09093AE008093AD0084E010C0913089
:1001800019F482E290E004C0923041F484E390E0FC
:100190009093AE008093AD0082E101C080E090E4D6
:1001A00090938C0017C0883059F0893019F49093DF
:1001B000B20002C08A3039F028EA30E080E006C0A0
:1001C00022EB30E002C028EA30E081E03093AE005C
:1001D0002093AD009F81992321F49E81981708F404
:1001E000892F809361001092AF008091600084FF9E
:1001F0004CC0809161008F3F09F447C0182F8930AF
:1002000008F018E0811B8093610080919F0098E8BE
:10021000892780939F00112361F18091AD00909117
:10022000AE0030918C00212F215036FF0EC030E0FF
:10023000A9014F555F4FFC01A0EAB0E064916D93B6
:100240003196A417B507D1F70CC0DC0130E0A90145
:100250004F555F4FE0EAF0E06D916193E417F507C9
:10026000D9F72F5F3F4F280F391F3093AE002093EF
:10027000AD0080EA90E0612F3ED01C5F1C3019F089
:100280008FEF809361001093600084E196B39570C6
:1002900031F48150D9F71092B0001092AA0011E009
:1002A000811110E080918D00811729F0112309F44C
:1002B000E3D110938D00DF91CF911F91089585B701
:1002C000826085BF8BB780648BBF0895A82FB92F3C
:1002D00080E090E041E050EA609530E009C02D9167
:1002E00082279795879510F084279527305EC8F36D
:1002F0006F5FA8F30895EADF8D939D930895A6E0BC
:1003000088279927AA9569F00197E1F3B099FCCF66
:10031000B09BFECF81E09927A6B3019611F0A5709E
:10032000D9F70895CF93CFB7CF93C395B09BE9F793
:10033000B09B0BC0B09B09C0B09B07C0B09B05C071
:10034000B09B03C0B09B01C0D3C00F92DF93C0919C
:10035000AC00DD27CD54DF4F012EB09B03C0DF91F1
:100360000F90E6CF2F930F931F934F932FEF4F6F65
:1003700006B300FB20F95F933F9350E03BE065C07C
:1003800016B30126502950FDC89556B3012700FB2E
:1003900025F92F7306B3B1F05027102710FB26F96B
:1003A00006B22230F0F000C016B3012700FB27F997
:1003B0000126502906B22430E8F54F77206816B39D
:1003C0000000F6CF50274F7D206206B2102F0000AC
:1003D00000C006B300265029102710FB26F906B2EC
:1003E000E2CF4F7B06B3206400C0DACF012650294C
:1003F000157006B269F14E7F2160012F16B328C037
:10040000002650294D7F06B22260102F29C00126F8
:1004100050294B7F06B22460012F2DC016B3012650
:100420005029477F2860000006B22EC04F7E06B3D9
:10043000206130C0422706B3499300265029102777
:1004400006B24FEF10FB20F9297F16B379F2157031
:1004500059F10126502906B2012700FB21F9237F1B
:1004600006B371F2002650293150D0F006B21027A1
:1004700010FB22F9277E16B351F2012650290127DD
:1004800000FB06B223F92F7C49F2000006B31027C7
:1004900010FB24F90026502906B22F7939F270CFCB
:1004A00010E41ABF002717C03B503195C31BD04042
:1004B00010E41ABF0881033CF9F00B34E9F02091F5
:1004C000AA001981110F1213EDCF093651F10D3227
:1004D00011F0013E39F70093B1003F915F914F91C8
:1004E0001F910F912F91DF910F90CAB7C6FD1DCFBD
:1004F000CF91CFBFCF9118952091B100222369F3FE
:100500001091AF00112321F5343022F13093AF0068
:100510002093AB001091AC003BE0311B3093AC005A
:1005200019C00091AF0001309CF40AE530916000E1
:1005300034FD11C000936000CFE9D0E010C0052762
:1005400010E000C021C0052710E0C89508BB14C00A
:100550003AE501C032ED032EC0E0D0E032E017B33F
:100560001560C09A08B317BB55E020E84FEF20FF95
:10057000052708BB279517951C3F28F70000455213
:10058000B0F720FF0527279508BB17951C3FB8F645
:1005900029913A9561F70A7F1091B000110F08BBBD
:1005A000C250D04011F01093AA0010E41ABF0160AD
:1005B00017B31A7F402F4A7F54E05A95F1F708BBD2
:1005C00017BB48BB8ACF1F920F920FB60F92112410
:1005D0008F939F93AF93BF938091CA009091CB006C
:1005E000A091CC00B091CD000196A11DB11D8093CA
:1005F000CA009093CB00A093CC00B093CD00BF91E4
:10060000AF919F918F910F900FBE0F901F901895F3
:10061000FC0181818823A1F4828180939B008381E6
:1006200080939C00848180939D00858180939E00AF
:100630008BE990E09093AE008093AD0084E0089544
:10064000813049F4828180FF03C08FEF8BBD01C0F0
:100650001BBC80E00895823069F481E0C49B80E097
:1006600080939B008BE990E09093AE008093AD0067
:1006700081E0089580E00895DF92EF92FF920F935A
:100680001F93CF93DF93F894C8E0D0E0FF2480E875
:10069000E82EDE2CDF0CD1BE32DE082F192F89E0C8
:1006A000043318070CF4FD2CE694219791F78F2D55
:1006B000815081BFCF2DD0E0219610C020DE845321
:1006C000994097FF03C0909581959F4F80179107A0
:1006D00014F4F1B68C0181B78F5F81BF81B790E0D0
:1006E000C817D9075CF7F1BE789461B780E090E055
:1006F00064D3DF91CF911F910F91FF90EF90DF9026
:1007000008959C0140E050E060E67AEE80E090E0E1
:10071000D5D13093CF002093CE000895AF92BF92F1
:10072000CF92DF92EF92FF920F931F93CF93DF93BD
:1007300080E090E03AD38F3F09F081BF2EE088E15E
:1007400090E00FB6F894A89581BD0FBE21BDB7DD2E
:10075000B89A80E007C0A895ACE1B0E11197F1F735
:1007600000C000008150B9F7B898789482E08ABD43
:1007700084E083BF80E889BD89B7806189BF81E05B
:1007800080BF80E68CBD1BBC8FEF8DBD96E097BD12
:1007900098E197BBC4988BBD81E590E0CCD1809364
:1007A00090009093910021E5DC011D922A95E9F7D4
:1007B00080938E0090938F0027E02093D0001092BA
:1007C000D3002EE230E03093CF002093CE0062E6DB
:1007D00070E0E4D243E0C42EDD24DA9435E0F32E59
:1007E00024E0E22EBB24B39492E0A92EF8948091E9
:1007F000CA009091CB00A091CC00B091CD00809325
:10080000970090939800A0939900B0939A007894E1
:100810009091D000983008F03CC18091D300833093
:1008200020F4813008F0E0C004C0863008F031C107
:1008300018C1E0918E00F0918F008091900090910E
:100840009100E817F90759F480919200882339F450
:10085000E081F0E0E65BFF4FE491E093920040918D
:100860009200442309F492C0403821F04F3F09F030
:1008700057C020C08091CE009091CF0063E070E01F
:100880000BD1A0E0B0E0209197003091980040910A
:10089000990050919A00820F931FA41FB51F809357
:1008A000930090939400A0939500B0939600E092EB
:1008B000D3001FC08091CE009091CF0067E070E020
:1008C000EBD0A0E0B0E020919700309198004091EB
:1008D000990050919A00820F931FA41FB51F809317
:1008E000930090939400A0939500B0939600F0929B
:1008F000D300E0918E00F0918F00CF01019690938C
:100900008F0080938E00E181EE2319F41092920003
:10091000C0C0F0E0E65BFF4FE491E0939200B9C005
:100920008091CE009091CF00009197001091980097
:100930002091990030919A0047FF14C063E070E065
:10094000ABD0A0E0B0E0800F911FA21FB31F809337
:10095000930090939400A0939500B0939600A0927A
:10096000D30010C0A0E0B0E0800F911FA21FB31F02
:100970008093930090939400A0939500B093960079
:10098000B092D300440F4093920083C0C091900076
:10099000D0919100CE0162E670E000D2D0938F003A
:1009A000C0938E00109292008091CE009091CF0063
:1009B00067E070E071D0A0E0B0E020919700309146
:1009C00098004091990050919A00820F931FA41FA4
:1009D000B51F8093930090939400A0939500B093DB
:1009E0009600F092D30055C09350953018F0C398FC
:1009F000DBBC02C0C3981BBC2091970030919800CB
:100A00004091990050919A008091930090919400A8
:100A1000A0919500B091960082179307A407B5079F
:100A2000C0F58091D000833018F0883028F402C0DF
:100A3000C39801C0C39A1BBC8091CE009091CF0097
:100A4000A0E0B0E0820F931FA41FB51F8093930016
:100A500090939400A0939500B0939600C092D30019
:100A600018C01BBC209197003091980040919900CC
:100A700050919A008091930090919400A0919500DC
:100A8000B091960082179307A407B50710F410924F
:100A9000D300A89524DBAACE5527002480FF02C0EE
:100AA000060E571F660F771F6115710521F0969589
:100AB0008795009799F7952F802D089597FB092E1C
:100AC00005260ED057FD04D014D00AD0001C38F4EF
:100AD00050954095309521953F4F4F4F5F4F08956A
:100AE000F6F790958095709561957F4F8F4F9F4F4A
:100AF0000895A1E21A2EAA1BBB1BFD010DC0AA1F5F
:100B0000BB1FEE1FFF1FA217B307E407F50720F076
:100B1000A21BB30BE40BF50B661F771F881F991FF1
:100B20001A9469F760957095809590959B01AC013A
:100B3000BD01CF010895CF93DF938230910510F46A
:100B400082E090E0E091D600F091D70040E050E0E4
:100B500020E030E026C06081718168177907E0F0FD
:100B60006817790781F4828193812115310531F06D
:100B7000D90113969C938E9312972BC09093D70014
:100B80008093D60026C04115510519F064177507EA
:100B900018F4AB01E901DF019F0172816381E72F46
:100BA000F62F3097C1F64115510501F1481B590B3D
:100BB0004430510580F412968D919C9113972097A3
:100BC00019F09B838A8304C09093D7008093D6004A
:100BD000FD01329646C0FD01E40FF51F819391930C
:100BE0004250504011965C934E933BC02091D400EC
:100BF0003091D5002115310541F4209187003091C5
:100C000088003093D5002093D40020918900309142
:100C10008A002115310541F42DB73EB7409185007A
:100C200050918600241B350BE091D400F091D50043
:100C3000E217F307A0F42E1B3F0B2817390778F0B3
:100C4000AC014E5F5F4F2417350748F04E0F5F1F12
:100C50005093D5004093D4008193919302C0E0E07B
:100C6000F0E0CF01DF91CF910895CF93DF9300970C
:100C700009F491C0FC013297138212826091D60070
:100C80007091D7006115710581F420813181280FA1
:100C9000391F8091D4009091D5008217930799F560
:100CA000F093D500E093D40076C0DB0180E090E0C3
:100CB00002C0CD01D901AE17BF0748F412962D919D
:100CC0003C91139721153105A1F7CD0121C0B383C4
:100CD000A283EF01499159919E01240F351FA2175C
:100CE000B30779F42D913C911197240F351F2E5F96
:100CF0003F4F3183208312962D913C91139733837C
:100D00002283009729F4F093D700E093D60043C0E4
:100D1000DC011396FC93EE9312974D915D91A40F15
:100D2000B51FEA17FB0769F420813181240F351FB5
:100D30002E5F3F4FEC0139832883228133813B832F
:100D40002A83E0E0F0E002C0FB01BC01DB01129667
:100D50008D919C9113970097B9F79B012E5F3F4FA0
:100D60008D919C911197820F931F4091D4005091C7
:100D7000D5004817590779F4309729F41092D70015
:100D80001092D60002C0138212822250304030935B
:100D9000D5002093D400DF91CF910895FB01DC01B1
:100DA00001900D920020E1F70895E199FECF9FBBDD
:100DB0008EBBE09A99278DB30895262FE199FECF37
:100DC0001CBA9FBB8EBB2DBB0FB6F894E29AE19A7A
:0A0DD0000FBE01960895F894FFCFBE
:100DDA005AFF565656204445204E5437532F422028
:100DEA00434E383500280014000C00280014000C6B
:0C0DFA0000F40114052000D800000000E7
:00000001FF
