:1000000069C1C8C282C181C180C17FC17EC17DC1B9
:100010007CC17BC106C579C178C177C176C1F4C501
:10002000FAC5FCC50CC6FAC50AC626C644C654C6DF
:100030007AC67CC68BC68DC693C697C6A2C6B0C606
:10004000040309041203450074006800650072008F
:100050006B006900740016034F00700065006E00AD
:1000600042006500610063006F006E001201100124
:10007000FF000008C016DC050001010200010902B2
:10008000120001010080320904000000000000009D
:10009000FF808080808080808080808080E080946D
:1000A000FC7C3C1C0C0484C4E4F48080808C803292
:1000B000806088A8904028D0082078B048E0A0F060
:1000C00068D85010C030187098B8C8808080808080
:1000D000806088A8904028D0082078B048E0A0F040
:1000E00068D85010C030187098B8C80000000000E0
:1000F00000005F00000007000700147F147F142435
:100100002A7F2A12231308646236495522500005BB
:10011000030000001C2241000041221C00082A1C90
:100120002A0808083E08080050300000080808089F
:1001300008006060000020100804023E5149453E5E
:1001400000427F400042615149462141454B3118F0
:1001500014127F1027454545393C4A494930017101
:100160000905033649494936064949291E003636EC
:100170000000005636000000081422411414141424
:100180001441221408000201510906324979413E06
:100190007E1111117E7F494949363E414141227FFE
:1001A0004141221C7F494949417F090901013E41E2
:1001B0004151327F0808087F00417F4100204041C3
:1001C0003F017F081422417F404040407F020402EB
:1001D0007F7F0408107F3E4141413E7F09090906A7
:1001E0003E4151215E7F091929464649494931015D
:1001F000017F01013F4040403F1F2040201F7F20E2
:1002000018207F63140814630304780403615149C0
:10021000454300007F4141020408102041417F0016
:10022000000402010204404040404000010204007A
:1002300020545454787F4844443838444444203847
:100240004444487F3854545418087E090102081465
:1002500054543C7F0804047800447D40002040440E
:100260003D00007F10284400417F40007C041804BA
:10027000787C0804047838444444387C1414140806
:10028000081414187C7C08040408485454542004AE
:100290003F4440203C4040207C1C2040201C3C40EF
:1002A00030403C44281028440C5050503C44645486
:1002B0004C449001C80078000A009001C800780002
:1002C0000A008813AC0DD606A00F1027FCB98C5578
:1002D0003517000011241FBECFE5D2E0DEBFCDBF31
:1002E00010E0A0E6B0E0E6EFFFE102C005900D925D
:1002F000A236B107D9F712E0A2E6B0E001C01D9224
:10030000A631B107E1F7F1D574CE7ACE1F93CF9322
:10031000DF936091CE01635067FD9FC08091CB0158
:10032000CCE0D0E0C81BD109CE52DE4F8091CA018B
:100330008D3209F080C0683009F08DC083EC809365
:10034000BE018AE580936000109262008881807609
:1003500031F0CE0142D48F3F09F45CC062C09A8173
:100360001092C7018981882331F41092C80127ECCB
:1003700031E082E04AC0853019F49093CF013BC050
:10038000863081F58B81813019F48CE690E015C0C0
:10039000823019F48EE790E010C08330F1F4992395
:1003A00041F480E490E09093CD018093CC0184E00F
:1003B00015C0913041F484E490E09093CD01809396
:1003C000CC0182E10BC0923041F486E590E090933D
:1003D000CD018093CC0186E101C080E090E4909350
:1003E00062001FC0883059F0893019F49093D10110
:1003F00002C08A3039F027EC31E080E006C021ED00
:1004000031E002C027EC31E081E03093CD01209350
:10041000CC0107C0988197FD8E8190E8909362008F
:1004200007C09F81992321F49E81981708F4892F92
:100430008093610010C08091620087FF0CC0CE01E4
:10044000FAD18F3F21F48EE18093600004C08823AD
:1004500011F0109261001092CE018091600084FF33
:100460004CC0809161008F3F09F447C0182F89303C
:1004700008F018E0811B809361008091BE0198E82C
:1004800089278093BE01112361F18091CC01909165
:10049000CD0130916200212F215036FF0EC030E097
:1004A000A90140545E4FFC01AFEBB1E064916D9344
:1004B0003196A417B507D1F70CC0DC0130E0A901D3
:1004C00040545E4FEFEBF1E06D916193E417F50757
:1004D000D9F72F5F3F4F280F391F3093CD0120935D
:1004E000CC018FEB91E0612F3ED01C5F1C3019F0E6
:1004F0008FEF809361001093600084E196B3957054
:1005000031F48150D9F71092CF011092C90111E056
:10051000811110E080916300811729F0112309F403
:10052000E7D110936300DF91CF911F91089585B7B4
:10053000826085BF8BB780648BBF0895A82FB92FC9
:1005400080E090E041E050EA609530E009C02D91F4
:1005500082279795879510F084279527305EC8F3FA
:100560006F5FA8F30895EADF8D939D930895A6E049
:1005700088279927AA9569F00197E1F3B099FCCFF4
:10058000B09BFECF81E09927A6B3019611F0A5702C
:10059000D9F70895CF93CFB7CF93C395B09BE9F721
:1005A000B09B0BC0B09B09C0B09B07C0B09B05C0FF
:1005B000B09B03C0B09B01C0D3C00F92DF93C0912A
:1005C000CB01DD27CE52DE4F012EB09B03C0DF9161
:1005D0000F90E6CF2F930F931F934F932FEF4F6FF3
:1005E00006B300FB20F95F933F9350E03BE065C00A
:1005F00016B30126502950FDC89556B3012700FBBC
:1006000025F92F7306B3B1F05027102710FB26F9F8
:1006100006B22230F0F000C016B3012700FB27F924
:100620000126502906B22430E8F54F77206816B32A
:100630000000F6CF50274F7D206206B2102F000039
:1006400000C006B300265029102710FB26F906B279
:10065000E2CF4F7B06B3206400C0DACF01265029D9
:10066000157006B269F14E7F2160012F16B328C0C4
:10067000002650294D7F06B22260102F29C0012686
:1006800050294B7F06B22460012F2DC016B30126DE
:100690005029477F2860000006B22EC04F7E06B367
:1006A000206130C0422706B3499300265029102705
:1006B00006B24FEF10FB20F9297F16B379F21570BF
:1006C00059F10126502906B2012700FB21F9237FA9
:1006D00006B371F2002650293150D0F006B210272F
:1006E00010FB22F9277E16B351F20126502901276B
:1006F00000FB06B223F92F7C49F2000006B3102755
:1007000010FB24F90026502906B22F7939F270CF58
:1007100010E41ABF002717C03B503195C31BD040CF
:1007200010E41ABF0881033CF9F00B34E9F0209182
:10073000C9011981110F1213EDCF093651F10D3294
:1007400011F0013E39F70093D0013F915F914F9135
:100750001F910F912F91DF910F90CAB7C6FD1DCF4A
:10076000CF91CFBFCF9118952091D001222369F36B
:100770001091CE01112321F5343022F13093CE01B6
:100780002093CA011091CB013BE0311B3093CB0188
:1007900019C00091CE0101309CF40AE5309160004F
:1007A00034FD11C000936000CEEBD1E010C00527EE
:1007B00010E000C021C0052710E0C89508BB14C098
:1007C0003AE501C032ED032EC0E0D0E032E017B3CD
:1007D0001560C09A08B317BB55E020E84FEF20FF23
:1007E000052708BB279517951C3F28F700004552A1
:1007F000B0F720FF0527279508BB17951C3FB8F6D3
:1008000029913A9561F70A7F1091CF01110F08BB2A
:10081000C250D04011F01093C90110E41ABF01601A
:1008200017B31A7F402F4A7F54E05A95F1F708BB5F
:1008300017BB48BB8ACF2091B801261708F4622F56
:10084000261B2093B8013091B901DC0180E008C07B
:100850009D91E82FE30FF0E0EF5EFE4F90838F5FF6
:100860008617B0F3630F6093B9012223D9F5809105
:10087000F401813061F0813028F0823079F08330EA
:1008800079F527C081E191E065E070E004C081E185
:1008900091E06EE270E048E250E021C080E090E03C
:1008A00061E171E041E050E054DB80E090E034DB56
:1008B000813019F08230A1F405C082E191E06BEF44
:1008C00070E004C082E191E062E171E046E150E055
:1008D00006C081E191E067E570E042EA50E06FDB3D
:1008E0001092000281E09091B801911180E008958A
:1008F000DF92EF92FF920F931F93CF93DF93F894C1
:10090000C8E0D0E0FF2480E8E82EDE2CDF0CD1BE6A
:100910002EDE082F192F89E0043318070CF4FD2C64
:10092000E694219791F78F2D815081BFCF2DD0E094
:10093000219610C01CDE8453994097FF03C0909508
:1009400081959F4F8017910714F4F1B68C0181B700
:100950008F5F81BF81B790E0C817D9075CF7F1BE00
:10096000789461B787E591E033DBDF91CF911F91F8
:100970000F91FF90EF90DF9008959B01AC0160EC28
:1009800077E289E090E0A6DA2093F5013093F60152
:100990004093F7015093F80108958F3108F08EE1EC
:1009A000682F70E080E090E02AE135E740E050E019
:1009B00064DA0895B19911C08091B6019091B701A0
:1009C0008330910528F401969093B7018093B60186
:1009D0001092B5011092B40110C08091B4019091B1
:1009E000B5018330910528F401969093B501809369
:1009F000B4011092B7011092B6018091B6019091A6
:100A0000B7018330910518F081E08093F201809165
:100A1000B4019091B5018330910510F01092F2016C
:100A200008951F920F920FB60F9211242F933F93A8
:100A30004F935F936F937F938F939F93AF93BF93E6
:100A4000EF93FF938091EE019091EF01A091F0015F
:100A5000B091F1010196A11DB11D8093EE0190931B
:100A6000EF01A093F001B093F101A4DFFF91EF91AA
:100A7000BF91AF919F918F917F916F915F914F91B6
:100A80003F912F910F900FBE0F901F9018958EE6FB
:100A900090E023EAFC0111922A95E9F72091E901FF
:100AA000213019F465E070E002C06EE270E048E2C7
:100AB00050E068DA8EE690E090931502809314027D
:100AC000109268000895EF92FF920F931F93CF93B7
:100AD000DF938091F9018A30F9F4CEE6D0E0CE01BF
:100AE00067E570E042EA50E04DDAD0931502C0931A
:100AF0001402109268008091640090916500A091AA
:100B00006600B09167008093050290930602A0935F
:100B10000702B093080258C0BADFE0906400F0907A
:100B200065000091660010916700609103026F31CB
:100B300008F06EE170E080E090E02AE135E740E007
:100B400050E09BD96E0D7F1D801F911F6093EA01BD
:100B50007093EB018093EC019093ED0110926C0087
:100B600010926B00E091F901E83041F481E090E0EF
:100B700021DA90930B0280930A020BC0F0E0EE0F93
:100B8000FF1FEE54FD4F8591949180930A0290933C
:100B90000B0220910A0230910B0240E050E060EC21
:100BA00077E289E090E096D92093F5013093F60141
:100BB0004093F7015093F801E0920502F09206028B
:100BC000009307021093080210920002DF91CF9168
:100BD0001F910F91FF90EF900895EF92FF921F9356
:100BE000CF93DF93E82EE7017E01F92EE7012981FB
:100BF000822F90E001978131910508F0D2C0815F8A
:100C00009F4F8F939F9308956A816093F90180E0CD
:100C100090E0DED9C5C08091F901A4C01092B9015D
:100C20008E818093B801843A18F083EA8093B801EA
:100C3000233019F41092F401B1C081E0ADC08E816F
:100C40009F818932910510F4182F01C019E22430D8
:100C500029F481E191E065E070E004C081E191E078
:100C60006EE270E048E250E08DD921E131E030934E
:100C7000CD012093CC0196C08A8190E068EE73E0AC
:100C8000EAD8EC0190930B0280930A029C0140E0A9
:100C900050E060EC77E289E090E01CD92093F50108
:100CA0003093F6014093F7015093F80181E090E012
:100CB000BE019CD976C080910A0290910B0268EE29
:100CC00073E0F4D86093BA018AEB91E09093CD0180
:100CD0008093CC0111E066C083E090E06A8178D90E
:100CE0006A81609303026F3108F06EE170E080E08A
:100CF00090E02AE135E740E050E0BFD82091640061
:100D0000309165004091660050916700620F731F3B
:100D1000841F951F6093EA017093EB018093EC01AF
:100D20009093ED013EC0809103021CC08A81813006
:100D300031F48093E9018AEF90E061E00FC082E036
:100D40008093E9018AEF90E062E008C08091E901B8
:100D500009C06A816093090284E090E039D921C01A
:100D6000809109028093BA01AFCF1092B9018E81B0
:100D70008093B801843A18F083EA8093B80182E046
:100D80000BC01092B9018E818093B801843A18F09B
:100D900083EA8093B80183E08093F4011FEF02C0DF
:100DA00092DE10E0812FDF91CF911F91FF90EF90A5
:100DB0000895EF92FF920F931F9381E080936D004F
:100DC0008091F9018093FE0180910A0290910B02BB
:100DD00090931302809312028091E90180930402A0
:100DE00080916800809369008091140290911502AF
:100DF00090930D0280930C0280910502909106025F
:100E0000A0910702B09108028093FA019093FB0130
:100E1000A093FC01B093FD01809100028093F30147
:100E200088E08093F90180E29EE490930B02809326
:100E30000A028EE190E0A0E0B0E08093F50190938B
:100E4000F601A093F701B093F80182E08093E901E5
:100E50001EDE8091FE01E0906400F090650000913C
:100E60006600109167008930D1F46091F5017091AE
:100E7000F6018091F7019091F80128EC30E040E014
:100E800050E0FBD76E0D7F1D801F911F6093050200
:100E90007093060280930702909308021EC020916F
:100EA000F5013091F6014091F7015091F801DA0116
:100EB000C901880F991FAA1FBB1F820F931FA41F70
:100EC000B51F8E0D9F1DA01FB11F8093050290932B
:100ED0000602A0930702B093080284E08093000208
:100EE0001F910F91FF90EF9008952F923F924F9294
:100EF0005F926F927F928F929F92AF92BF92CF92AA
:100F0000DF92EF92FF920F931F93DF93CF9300D066
:100F100000D0CDB7DEB787E591E044D88F3F09F028
:100F200081BF2EE088E190E00FB6F894A89581BDCE
:100F30000FBE21BDFCDAB89A80E007C0A895ACE1ED
:100F4000B0E11197F1F700C000008150B9F7B898EF
:100F50008AB582608ABD84E083BF80E889BD89B795
:100F6000806189BF81E080BF80E68CBD1BBC8FEFB4
:100F70008DBD96E097BDBC9AC498BB9AC39AB998A8
:100F8000C19A8BBDC39AEEE6F0E083EADF011D92C1
:100F90008A95E9F7F0931502E093140280E090E05F
:100FA00001D88093F90110920002883041F481E069
:100FB00090E000D890930B0280930A020CC0E82FB7
:100FC000F0E0EE0FFF1FEE54FD4F2591349120937A
:100FD0000A0230930B0220910A0230910B0240E08A
:100FE00050E060EC77E289E090E074D72093F5015F
:100FF0003093F6014093F7015093F8018AEF90E0A7
:10100000D1D7182F8093E90184E090E0CBD780936B
:101010000902113029F48EE690E065E070E006C028
:10102000123039F48EE690E06EE270E048E250E073
:10103000A9D783E090E0B6D780930302E0906400E4
:10104000F09065000091660010916700682F8F3165
:1010500008F06EE170E080E090E02AE135E740E0E2
:1010600050E00BD76E0D7F1D801F911F6093EA012A
:101070007093EB018093EC019093ED01D801C701CF
:101080008C5F9C46AB4FBF4F80930E0290930F0234
:10109000A0931002B093110216DD789488E0982E88
:1010A00007E0702E15E0812E66246394B3E02B2EAA
:1010B000A6E05A2EFDE04F2EEBE03E2E81ED92E0B1
:1010C000FC01F491F983FC01319724912A83FC01FE
:1010D0003297A491AB830196FC01F491FC83F894C0
:1010E0008091EE019091EF01A091F001B091F1019A
:1010F0008093640090936500A0936600B0936700AE
:1011000078948091F2018111DEDC209164003091AD
:101110006500409166005091670080910E029091A9
:101120000F02A0911002B091110282179307A40739
:10113000B507C8F480916D008823A9F43ADE809148
:10114000640090916500A0916600B09167008C5F8B
:101150009C46AB4FBF4F80930E0290930F02A0931B
:101160001002B09311028091F901893009F46BC229
:10117000893050F08B3009F4C2C38B3008F48BC532
:101180008C3009F065C612C690910002933020F4AD
:10119000913008F0F9C107C0973008F43FC29D3084
:1011A00009F056C6EBC1C39860910302662309F4A7
:1011B00057C0E0906400F0906500009166001091C7
:1011C00067008091EA019091EB01A091EC01B09150
:1011D000ED01E816F9060A071B0708F441C08091E3
:1011E00014029091150220E08E369207C9F56F31F6
:1011F00008F06EE170E080E090E02AE135E740E041
:1012000050E03BD66E0D7F1D801F911F6093EA0159
:101210007093EB018093EC019093ED012091F50127
:101220003091F6014091F7015091F801DA01C901BE
:1012300073E0880F991FAA1FBB1F7A95D1F7821BF5
:10124000930BA40BB50B8E0D9F1DA01FB11F809398
:10125000050290930602A0930702B09308023EC0D5
:101260008091140290911502A0E08E369A07C9F57C
:10127000809168008823A9F5E0916E00F0E0E059C4
:10128000FF4FE491E09368008091F901883049F1C3
:101290008091F5019091F601A091F701B091F801CC
:1012A0009C01AD01220F331F441F551F280F391F0A
:1012B0004A1F5B1F8091640090916500A0916600B9
:1012C000B0916700280F391F4A1F5B1F209305024A
:1012D00030930602409307025093080240920002A6
:1012E000B7C560916800662309F486C0603821F0B4
:1012F0006F3F09F041C02AC08091F5019091F6013D
:10130000A091F701B091F8019C01AD01220F331FAC
:10131000441F551F280F391F4A1F5B1F809164000F
:1013200090916500A0916600B0916700280F391F69
:101330004A1F5B1F20930502309306024093070269
:1013400050930802B4E0B093000286C38091F50187
:101350009091F601A091F701B091F8019C01AD01C7
:1013600013E0220F331F441F551F1A95D1F7281B76
:10137000390B4A0B5B0B5AC3E0906400F090650098
:1013800000916600109167002091F5013091F601FF
:101390004091F7015091F80167FF1AC0DA01C901C5
:1013A000880F991FAA1FBB1F820F931FA41FB51F71
:1013B0008E0D9F1DA01FB11F809305029093060202
:1013C000A0930702B0930802E2E0E093000210C08D
:1013D000DA01C9018E0D9F1DA01FB11F8093050268
:1013E00090930602A0930702B09308026092000255
:1013F000660F609368002CC580916D00882309F406
:1014000055C08091FE018093F90120911202309124
:10141000130230930B0220930A0240E050E060EC8C
:1014200077E289E090E056D52093F5013093F601FC
:101430004093F7015093F801809169008093680010
:10144000809104028093E90122DB80910C0290914B
:101450000D02909315028093140280916400909184
:101460006500A0916600B09167008C5F9C46AB4F11
:10147000BF4F80930E0290930F02A0931002B0937F
:10148000110210926D008091FA019091FB01A091E0
:10149000FC01B091FD018093050290930602A09398
:1014A0000702B09308028091F301D0C4F0DA809172
:1014B0000302E0906400F0906500009166001091D6
:1014C00067002091F5013091F6014091F7015091AC
:1014D000F8018823E1F4DA01C901E3E0880F991FDC
:1014E000AA1FBB1FEA95D1F7821B930BA40BB50B68
:1014F0008E0D9F1DA01FB11F8093050290930602C1
:10150000A0930702B09308028092000231C0A0901D
:10151000EA01B090EB01C090EC01D090ED01DA014E
:10152000C90173E0880F991FAA1FBB1F7A95D1F7D5
:10153000821B930BA40BB50B8E0D9F1DA01FB11F1B
:10154000A816B906CA06DB0648F4809305029093F4
:101550000602A0930702B093080208C0A0920502F9
:10156000B0920602C0920702D09208025092000286
:101570008091F901883009F01CC16AC41BBC8450F9
:10158000853008F05EC0B9C18450853028F0C39A18
:10159000809109028BBD02C0C39A1BBC20916400DC
:1015A000309165004091660050916700809105027E
:1015B00090910602A0910702B0910802821793074A
:1015C000A407B50708F044C48091F901843018F0ED
:1015D000893028F402C0C39A01C0C3981BBC209173
:1015E000F5013091F6014091F7015091F801809199
:1015F000640090916500A0916600B0916700280F8B
:10160000391F4A1F5B1F2093050230930602409347
:10161000070250930802209200021AC41BBC9630A5
:1016200009F46BC1843009F468C1853009F465C1DF
:10163000863009F462C1873009F45FC1883009F44B
:101640005CC1C39AEAC380910002853009F454C199
:10165000863018F4882341F0F5C3873009F44CC173
:10166000883009F0EFC3FCC060910302662361F18A
:10167000E0906400F09065000091660010916700B2
:101680008091EA019091EB01A091EC01B091ED0104
:10169000E816F9060A071B07B8F06F3108F06EE18B
:1016A00070E080E090E02AE135E740E050E0E5D3EB
:1016B0006E0D7F1D801F911F6093EA017093EB01F7
:1016C0008093EC019093ED01A0911402B09115026A
:1016D000F0E0AE36BF0799F480916A00882379F470
:1016E00080916E0090E065E070E0B5D3FC01E55BB1
:1016F000FF4F60926B00E491E0936A0094C02091E8
:101700006B008C9190E065E070E0A5D3FC01E20FE6
:10171000F11DE55BFF4F2F5F20936B00E491E09399
:101720006A00263008F47FC010926B00CD0101964C
:10173000909315028093140211968C91119788232F
:1017400009F04DC0A4D980910302E0906400F090AC
:1017500065000091660010916700882309F4DEC1DE
:10176000A090EA01B090EB01C090EC01D090ED01A7
:101770006091F5017091F6018091F7019091F80167
:1017800028EC30E040E050E078D36E0D7F1D801FE4
:10179000911FA616B706C806D90608F4D0C1A092B4
:1017A0000502B0920602C0920702D092080280920F
:1017B0000002FFDA8091640090916500A0916600BC
:1017C000B09167008C5F9C46AB4FBF4F80930E0279
:1017D00090930F02A0931002B093110239C360914D
:1017E000F5017091F6018091F7019091F80124E1E3
:1017F00030E040E050E041D39B01AC0180916400B7
:1018000090916500A0916600B0916700280F391F84
:101810004A1F5B1F20930502309306024093070284
:101820005093080225C22091F5013091F6014091B4
:10183000F7015091F8018091640090916500A091AA
:101840006600B0916700280F391F4A1F5B1F209365
:10185000050230930602409307025093080249C0E4
:1018600020916C00E22FF0E0E453FD4FE491EBBDDA
:1018700080916A0090E002C0959587952A95E2F7DD
:1018800080FF02C0C39A01C0C398209164003091C8
:10189000650040916600509167008091050290912B
:1018A0000602A0910702B091080282179307A407CD
:1018B000B50708F0CDC280916C008F5F80936C00FB
:1018C000883018F010926C00BDC28091F5019091A3
:1018D000F601A091F701B091F801820F931FA41FA8
:1018E000B51F8093050290930602A0930702B09360
:1018F000080290920002ACC21BBCC3988EC28091B9
:101900000002853009F4C4C1863018F4882341F000
:1019100099C2873009F4BCC1883009F093C24AC12A
:10192000C3981BBC60910302662361F1E0906400E0
:10193000F090650000916600109167008091EA01C7
:101940009091EB01A091EC01B091ED01E816F90640
:101950000A071B07B8F06F3108F06EE170E080E015
:1019600090E02AE135E740E050E087D26E0D7F1D20
:10197000801F911F6093EA017093EB018093EC014B
:101980009093ED01809114029091150220E08E3623
:10199000920761F480916800882341F4E0916E0021
:1019A000F0E0E059FF4FE491E09368008091680017
:1019B000882309F4A6C0803821F08F3F09F063C066
:1019C00026C06091F5017091F6018091F701909128
:1019D000F8012CE330E040E050E04FD29B01AC0135
:1019E0008091640090916500A0916600B0916700BD
:1019F000280F391F4A1F5B1F2093050230930602F0
:101A000040930702509308027092000225C0609133
:101A1000F5017091F6018091F7019091F80128ECA1
:101A200030E040E050E029D29B01AC01809164009D
:101A300090916500A0916600B0916700280F391F52
:101A40004A1F5B1F20930502309306024093070252
:101A50005093080280920002E0911402F091150266
:101A6000CF0101969093150280931402E181EE2339
:101A700019F410926800ECC1F0E0E059FF4FE491D6
:101A8000E0936800E5C187FF05C081E191E06BEF5D
:101A900070E004C081E191E062E171E046E150E074
:101AA00071D281E191E09093020280930102109241
:101AB0006B008091110180936A002091F5013091B3
:101AC000F6014091F7015091F801809164009091E6
:101AD0006500A0916600B0916700280F391F4A1F6A
:101AE0005B1F209305023093060240930702509338
:101AF00008029092000280916800880F809368002D
:101B0000A7C1C5D780910302E0906400F090650002
:101B100000916600109167008823D1F46091F5016F
:101B20007091F6018091F7019091F80128EC30E076
:101B300040E050E0A2D16E0D7F1D801F911F609389
:101B400005027093060280930702909308022FCE3D
:101B5000A090EA01B090EB01C090EC01D090ED01B3
:101B60006091F5017091F6018091F7019091F80173
:101B700028EC30E040E050E080D16E0D7F1D801FEA
:101B8000911FA616B706C806D90648F46093050249
:101B900070930602809307029093080208C0A092F7
:101BA0000502B0920602C0920702D092080250923B
:101BB0000002FFCD20916C00E22FF0E0E453FD4FD6
:101BC000E491EBBD80916A0090E002C09595879505
:101BD0002A95E2F780FF02C0C39A01C0C398E09043
:101BE0006400F0906500009166001091670080919C
:101BF000050290910602A0910702B09108028E158D
:101C00009F05A007B10708F023C180916C008F5F8A
:101C100080936C00883078F110926C00E0910102A2
:101C2000F0910202CF01019690930202809301028B
:101C3000818180936A008038F1F410926B0060918A
:101C4000F5017091F6018091F7019091F80124E17E
:101C500030E040E050E011D16E0D7F1D801F911FDC
:101C60006093050270930602809307029093080226
:101C700070920002EDC08091F5019091F601A09163
:101C8000F701B091F8018E0D9F1DA01FB11F29CE45
:101C9000C3981BBCC2C080910002882321F08B3006
:101CA00009F0D0C018C0C39820916400309165003D
:101CB0004091660050916700809105029091060264
:101CC000A0910702B091080282179307A407B507F5
:101CD00008F0BEC05AC0C39AE0911402F0911502F8
:101CE0008081813369F0823318F4803389F405C030
:101CF000823349F0833361F409C09C819BBD08C0E5
:101D0000A981ABBD05C0BA81BBBD02C0EB81EBBDF3
:101D10002091640030916500409166005091670009
:101D20008091050290910602A0910702B0910802ED
:101D300082179307A407B50708F08AC0E091140240
:101D4000F0911502CF010196909315028093140231
:101D500081818823D1F48EE690E067E570E042EA65
:101D600050E010D18EE690E090931502809314021B
:101D70008FEF9FEFAFEFBFEF8093050290930602C6
:101D8000A0930702B09308025DC0DA01C9018A5A24
:101D90009E4FAF4FBF4F8093050290930602A093D2
:101DA0000702B09308023092000252C080910002F4
:101DB000882321F08A3009F048C027C0C398809159
:101DC0006C008F5F80936C00883010F010926C0074
:101DD0002091F5013091F6014091F7015091F80101
:101DE0008091640090916500A0916600B0916700B9
:101DF000280F391F4A1F5B1F2093050230930602EC
:101E0000409307025093080220C0C39AE0916C00EF
:101E1000F0E0E453FD4FE491EBBD2091640030917C
:101E20006500409166005091670080910502909195
:101E30000602A0910702B091080282179307A40737
:101E4000B50730F41092000203C08AE080930002CC
:101E5000A8955CD244C95527002480FF02C0060E15
:101E6000571F660F771F6115710521F096958795AD
:101E7000009799F7952F802D0895FF27EE27BB2710
:101E8000AA2760FF04C0A20FB31FE41FF51F220F93
:101E9000331F441F551F969587957795679589F74A
:101EA0000097760771F7CF01BD010895AA1BBB1BF0
:101EB00051E107C0AA1FBB1FA617B70710F0A61B4A
:101EC000B70B881F991F5A95A9F780959095BC016B
:101ED000CD010895A1E21A2EAA1BBB1BFD010DC066
:101EE000AA1FBB1FEE1FFF1FA217B307E407F507CA
:101EF00020F0A21BB30BE40BF50B661F771F881FA6
:101F0000991F1A9469F760957095809590959B013B
:101F1000AC01BD01CF010895FC0188279927E89401
:101F200021912032E9F3293010F02E30C8F32B3202
:101F300039F02D3231F4689403C01AD0820F911D0C
:101F4000219120532A30C8F31EF4909581959F4F1C
:101F50000895FB01DC014150504048F001900D9282
:101F60000020C9F701C01D9241505040E0F708958C
:101F7000BC01880F991F880F991F860F971F880F24
:101F8000991F0895DC01CB01FC01E199FECF06C049
:101F9000FFBBEEBBE09A31960DB20D92415050401E
:101FA000B8F70895E199FECF9FBB8EBBE09A9927C1
:101FB0008DB30895A8E1B0E042E050E0E5CFDC0148
:101FC000CB0102C02D9105D041505040D8F7089563
:101FD000262FE199FECF1CBA9FBB8EBB2DBB0FB63F
:101FE000F894E29AE19A0FBE01960895F1DF272F47
:061FF000F0CFF894FFCFD2
:021FF6005AFF90
:00000001FF
