:100000004DC1A7C266C165C164C163C162C161C19E
:1000100060C15FC1EFC35DC15CC15BC15AC1040374
:1000200009041203450074006800650072006B004B
:100030006900740012034F00700065006E005100EB
:1000400052005300530012011001FF000008C016B7
:10005000DC0500010102000109021200010100801B
:1000600032090400000000000000FF8080808080D2
:1000700080808080808080E08094FC7C3C1C0C042C
:1000800084C4E4F48080808C8032806088A89040B2
:1000900028D0082078B048E0A0F068D85010C030D0
:1000A000187098B8C88080808080806088A8904050
:1000B00028D0082078B048E0A0F068D85010C030B0
:1000C000187098B8C8000000000000005F00000031
:1000D00007000700147F147F14242A7F2A12231399
:1000E00008646236495522500005030000001C22B6
:1000F00041000041221C00082A1C2A0808083E086A
:10010000080050300000080808080800606000007F
:1001100020100804023E5149453E00427F40004203
:10012000615149462141454B311814127F10274532
:100130004545393C4A494930017109050336494969
:100140004936064949291E00363600000056360059
:10015000000008142241141414141441221408003D
:100160000201510906324979413E7E1111117E7F0B
:10017000494949363E414141227F4141221C7F4944
:100180004949417F090901013E414151327F080837
:10019000087F00417F41002040413F017F08142239
:1001A000417F404040407F0204027F7F0408107F6F
:1001B0003E4141413E7F090909063E4151215E7F92
:1001C00009192946464949493101017F01013F404A
:1001D00040403F1F2040201F7F2018207F631408CD
:1001E00014630304780403615149454300007F41CF
:1001F00041020408102041417F0000040201020472
:100200004040404040000102040020545454787F94
:10021000484444383844444420384444487F38549F
:10022000545418087E090102081454543C7F0804F1
:10023000047800447D40002040443D00007F1028A9
:100240004400417F40007C041804787C0804047852
:1002500038444444387C14141408081414187C7C62
:10026000080404084854545420043F4440203C40AF
:1002700040207C1C2040201C3C4030403C44281046
:1002800028440C5050503C4464544C4400083641BF
:100290000000007F000000413608000011241FBE4E
:1002A000CFE5D2E0DEBFCDBF10E0A0E6B0E0E6E5EE
:1002B000F1E102C005900D92A83DB107D9F711E018
:1002C000A8EDB0E001C01D92A437B107E1F7C2D399
:1002D00040C796CE1F93CF93DF936091490163503F
:1002E00067FD9AC080914601CCE0D0E0C81BD109DF
:1002F000C35BDE4F809145018D3209F07BC06830D1
:1003000009F088C083EC809339018AE5809360000E
:100310001092D8008881807631F0CE0190D28F3F44
:1003200009F457C05DC09A811092420189818823E7
:1003300031F41092430122E431E082E045C085307F
:1003400019F490934A0136C0863059F58B8181307B
:1003500019F486E490E01AC0823019F488E590E040
:1003600015C08330C9F4992341F48EE190E0909355
:1003700048018093470184E010C0913019F482E273
:1003800090E004C0923041F484E390E090934801FF
:100390008093470182E101C080E090E49093D8000F
:1003A0001FC0883059F0893019F490934C0102C075
:1003B0008A3039F022E431E080E006C02CE431E0FC
:1003C00002C022E431E081E03093480120934701EC
:1003D00007C0988197FD8E8190E89093D80007C060
:1003E0009F81992321F49E81981708F4892F809387
:1003F000610010C08091D80087FF0CC0CE019AD256
:100400008F3F21F48EE18093600004C0882311F0B7
:1004100010926100109249018091600084FF4CC0ED
:10042000809161008F3F09F447C0182F893008F090
:1004300018E0811B809361008091390198E8892739
:1004400080933901112361F1809147019091480116
:100450003091D800212F215036FF0EC030E0A90185
:10046000455C5E4FFC01AAE3B1E064916D93319667
:10047000A417B507D1F70CC0DC0130E0A901455C39
:100480005E4FEAE3F1E06D916193E417F507D9F768
:100490002F5F3F4F280F391F3093480120934701AA
:1004A0008AE391E0612F3ED01C5F1C3019F08FEF82
:1004B000809361001093600084E196B3957031F4ED
:1004C0008150D9F710924A011092440111E0811134
:1004D00010E08091D900811729F0112309F468D226
:1004E0001093D900DF91CF911F91089585B7826055
:1004F00085BF8BB780648BBF0895A82FB92F80E08C
:1005000090E041E050EA609530E009C02D918227EB
:100510009795879510F084279527305EC8F36F5F15
:10052000A8F30895EADF8D939D930895A6E08827A8
:100530009927AA9569F00197E1F3B099FCCFB09B98
:10054000FECF81E09927A6B3019611F0A570D9F7E7
:100550000895CF93CFB7CF93C395B09BE9F7B09BE6
:100560000BC0B09B09C0B09B07C0B09B05C0B09B3F
:1005700003C0B09B01C0D3C00F92DF93C09146016E
:10058000DD27C35BDE4F012EB09B03C0DF910F90D0
:10059000E6CF2F930F931F934F932FEF4F6F06B319
:1005A00000FB20F95F933F9350E03BE065C016B33A
:1005B0000126502950FDC89556B3012700FB25F9A7
:1005C0002F7306B3B1F05027102710FB26F906B29F
:1005D0002230F0F000C016B3012700FB27F90126F6
:1005E000502906B22430E8F54F77206816B3000092
:1005F000F6CF50274F7D206206B2102F000000C0BA
:1006000006B300265029102710FB26F906B2E2CFC8
:100610004F7B06B3206400C0DACF01265029157045
:1006200006B269F14E7F2160012F16B328C0002663
:1006300050294D7F06B22260102F29C00126502973
:100640004B7F06B22460012F2DC016B3012650291E
:10065000477F2860000006B22EC04F7E06B320619F
:1006600030C0422706B3499300265029102706B20E
:100670004FEF10FB20F9297F16B379F2157059F16D
:100680000126502906B2012700FB21F9237F06B37A
:1006900071F2002650293150D0F006B2102710FB1D
:1006A00022F9277E16B351F201265029012700FBBB
:1006B00006B223F92F7C49F2000006B3102710FB85
:1006C00024F90026502906B22F7939F270CF10E4B0
:1006D0001ABF002717C03B503195C31BD04010E410
:1006E0001ABF0881033CF9F00B34E9F02091440172
:1006F0001981110F1213EDCF093651F10D3211F09E
:10070000013E39F700934B013F915F914F911F914B
:100710000F912F91DF910F90CAB7C6FD1DCFCF91DA
:10072000CFBFCF91189520914B01222369F31091EF
:100730004901112321F5343022F1309349012093EE
:100740004501109146013BE0311B3093460119C031
:100750000091490101309CF40AE53091600034FDBC
:1007600011C000936000C9E3D1E010C0052710E07C
:1007700000C021C0052710E0C89508BB14C03AE5A9
:1007800001C032ED032EC0E0D0E032E017B31560B7
:10079000C09A08B317BB55E020E84FEF20FF0527AC
:1007A00008BB279517951C3F28F700004552B0F766
:1007B00020FF0527279508BB17951C3FB8F6299100
:1007C0003A9561F70A7F10914A01110F08BBC25098
:1007D000D04011F01093440110E41ABF016017B328
:1007E0001A7F402F4A7F54E05A95F1F708BB17BB98
:1007F00048BB8ACF1F920F920FB60F9211248F938E
:100800009F93AF93BF938091640190916501A091F4
:100810006601B09167010196A11DB11D809364012D
:1008200090936501A0936601B0936701BF91AF916A
:100830009F918F910F900FBE0F901F901895CF939F
:10084000DF93FC0181818823A1F4828180933501AB
:1008500083818093360184818093370185818093E1
:10086000380185E391E0909348018093470184E04B
:100870005EC08130A1F5628160936A0180E090E002
:1008800057D4CEEDD0E0CE0163E070E040E550E01B
:1008900011D4D0937301C09372011092DA001092B8
:1008A000DD001092DC00E0916A01F0E0EE0FFF1F26
:1008B000E454FF4FC081D1819E0140E050E060E6EA
:1008C0007AEE80E090E0B9D330936901209368011B
:1008D00081E090E0BE013AD410926D0127C08230D1
:1008E00061F480916A018093350185E391E09093F2
:1008F00048018093470181E01AC0833059F4868112
:100900008093340110923301823570F081E5809339
:1009100034010AC0843051F48EED90E09093480188
:100920008093470181E503C08FEF01C080E0DF9134
:10093000CF910895CF93DF9321E5EEEDF0E0DF0155
:100940001D922A95E9F740913401A0913301E82FD7
:10095000F92F06C09191B0E0A252BF4F9C93A22FF5
:10096000A41730F42A2F2F5F9E2F981B961790F311
:10097000A0933301CEEDD0E0CE0163E070E040E51E
:1009800050E0B5D3D0937301C09372011092DA0096
:100990001092DD001092DC0010926D0181E0209138
:1009A000330190913401291380E0DF91CF910895B4
:1009B000DF92EF92FF920F931F93CF93DF93F89400
:1009C000C8E0D0E0FF2490E8E92EDE2CDF0CD1BE99
:1009D000ADDD082F192F89E0043318070CF4FD2C26
:1009E000E694219791F78F2D815081BFCF2DD0E0D4
:1009F000219610C09BDD8453994097FF03C09095CA
:100A000081959F4F8017910714F4F1B68C0181B73F
:100A10008F5F81BF81B790E0C817D9075CF7F1BE3F
:100A2000789461B780E090E083D3DF91CF911F91FC
:100A30000F91FF90EF90DF9008959C0140E050E00F
:100A400060E67AEE80E090E0F8D23093690120937E
:100A5000680108955F926F927F928F929F92AF92FA
:100A6000BF92CF92DF92EF92FF920F931F93CF939B
:100A7000DF9380E090E02ED38F3F09F081BF2EE01E
:100A800088E190E00FB6F894A89581BD0FBE21BD16
:100A90002DDDB89A80E007C0A895ECE1F0E1319730
:100AA000F1F700C000008150B9F7B898789482E05F
:100AB0008ABD84E083BF80E889BD89B7806189BF32
:100AC00081E080BF80E68CBD1BBC8FEF8DBD96E0C2
:100AD00097BDBC9AC498BB9AC39A8BBDC39ACEEDFE
:100AE000D0E081E5FE0111928A95E9F7D093730178
:100AF000C093720180E090E0EDD280936A01109281
:100B00006D0181E090E0EED29C0140E050E060E6B3
:100B10007AEE80E090E091D23093690120936801F1
:100B2000CE0163E070E040E550E0C4D2F7E0CF2EA4
:100B3000E6E06E2E5E01DC2EEB2C75E0F72E63E016
:100B4000B62E54E6A52E44E0942E8824839432E0F9
:100B5000732ECCEDD5E029E0522EF89480916401FB
:100B600090916501A0916601B091670180932F017A
:100B700090933001A0933101B09332017894809129
:100B80006A01883009F411C1883020F0893009F0F9
:100B900039C2E8C190916D01933020F4913008F092
:100BA000C4C004C0963008F033C2FDC08091720109
:100BB0009091730120E08E3D920761F48091DA00FC
:100BC000882341F4E091DE00F0E0E65BFF4FE49122
:100BD000E093DA004091DA00442309F492C04038EF
:100BE00021F04F3F09F057C020C0809168019091DB
:100BF000690163E070E00FD2A0E0B0E020912F0126
:100C0000309130014091310150913201820F931F98
:100C1000A41FB51F80936E0190936F01A093700184
:100C2000B093710190926D011FC080916801909105
:100C3000690167E070E0EFD1A0E0B0E020912F0102
:100C4000309130014091310150913201820F931F58
:100C5000A41FB51F80936E0190936F01A093700144
:100C6000B0937101F0926D01E0917201F091730106
:100C7000CF0101969093730180937201E181EE237D
:100C800019F41092DA00C4C1F0E0E65BFF4FE49182
:100C9000E093DA00BDC180916801909169010091F3
:100CA0002F0110913001209131013091320147FF25
:100CB00014C063E070E0AFD1A0E0B0E0800F911FFE
:100CC000A21FB31F80936E0190936F01A0937001D8
:100CD000B093710170926D0110C0A0E0B0E0800F80
:100CE000911FA21FB31F80936E0190936F01A09379
:100CF0007001B093710180926D01440F4093DA004E
:100D000087C18EED90E063E070E040E550E0D2D125
:100D1000D0927201E09273011092DA008091680122
:100D20009091690167E070E087C08350853018F0CA
:100D3000C39AABBC02C0C39A1BBC20912F01309157
:100D40003001409131015091320180916E019091BA
:100D50006F01A0917001B091710182179307A407F0
:100D6000B50708F055C180916A01833018F08830CA
:100D700028F402C0C39A01C0C3981BBC80916801CB
:100D800090916901A0E0B0E0820F931FA41FB51FEE
:100D900080936E0190936F01A0937001B0937101E5
:100DA000B0926D0135C11BBC12C180916D018730BD
:100DB00030F4853008F0D3C0882329F01DC1873076
:100DC00009F01AC182C0A0917201B0917301209103
:100DD000DC008C9190E065E070E01DD1FC01E20F39
:100DE000F11DEB5DFF4FE491E093DB002F5F20935B
:100DF000DC00263008F45AC01092DC00CD010196C8
:100E0000909373018093720111968C9111978823AE
:100E100069F58EED90E063E070E040E550E04AD186
:100E2000D0927201E09273011092DB008091680110
:100E30009091690164EF71E0EED0A0E0B0E0209104
:100E40002F01309130014091310150913201820FD8
:100E5000931FA41FB51F80936E0190936F01A09301
:100E60007001B0937101F0926D01D2C08091680160
:100E7000909169016AE070E0CED0A0E0B0E02091EE
:100E80002F01309130014091310150913201820F98
:100E9000931FA41FB51F80936E0190936F01A093C1
:100EA0007001B093710160926D01B2C080916801D0
:100EB00090916901A0E0B0E020912F0130913001C4
:100EC00040913101509132013BC02091DD00E22F71
:100ED000F0E0E053FF4F80818BBD8091DB0090E01C
:100EE00002C0959587952A95E2F780FF02C0C39AC4
:100EF00001C0C39820912F01309130014091310100
:100F00005091320180916E0190916F01A09170011A
:100F1000B091710182179307A407B50708F078C054
:100F20008091DD008F5F8093DD00883018F0109293
:100F3000DD0062C08091680190916901A0E0B0E09D
:100F4000820F931FA41FB51F80936E0190936F01B2
:100F5000A0937001B0937101C0926D0159C01BBC88
:100F6000C39835C090916D01992321F0993009F013
:100F700046C026C08091DD008F5F8093DD00883001
:100F800010F01092DD008091680190916901A0E05D
:100F9000B0E020912F01309130014091310150910A
:100FA0003201820F931FA41FB51F80936E0190938F
:100FB0006F01A0937001B093710150926D0128C030
:100FC000E091DD00F0E0E053FF4F80818BBD209188
:100FD0002F013091300140913101509132018091C7
:100FE0006E0190916F01A0917001B0917101821713
:100FF0009307A407B50760F410926D0109C08093B0
:101000006D0106C010926A01D0936901C093680116
:10101000A89560D9A2CD5527002480FF02C0060EF6
:10102000571F660F771F6115710521F096958795FB
:10103000009799F7952F802D089597FB092E052687
:101040000ED057FD04D014D00AD0001C38F45095AF
:101050004095309521953F4F4F4F5F4F0895F6F7DC
:1010600090958095709561957F4F8F4F9F4F089514
:10107000A1E21A2EAA1BBB1BFD010DC0AA1FBB1F9C
:10108000EE1FFF1FA217B307E407F50720F0A21B0E
:10109000B30BE40BF50B661F771F881F991F1A947B
:1010A00069F760957095809590959B01AC01BD01A5
:1010B000CF010895DC01CB01FC01E199FECF06C010
:1010C000FFBBEEBBE09A31960DB20D9241505040FD
:1010D000B8F70895E199FECF9FBB8EBBE09A9927A0
:1010E0008DB30895A8E1B0E042E050E0E5CFDC0127
:1010F000A40FB51F4150504040F0CB01840F951F05
:101100002E9105D041505040D8F70895262FE199EF
:10111000FECF9FBB8EBBE09A01970DB2021639F04D
:101120001CBA2DBB0FB6F894E29AE19A0FBE08954F
:10113000262FE199FECF1CBA9FBB8EBB2DBB0FB6ED
:10114000F894E29AE19A0FBE01960895F1DF272FF5
:06115000F0CFF894FFCF80
:101156005AFF6466637733000000000064666377B5
:10116600360000000000646663773130000000003E
:10117600717273733300000000007172737336006E
:101186000000000071727373313000000000637755
:10119600350000000000000068656C6C000000006F
:1011A600000063616C0000000000000028001400CD
:1011B6000C00280014000C00F40114052C01D007C3
:0811C600FCB98C55351700003F
:00000001FF
