:100000004FC1AEC268C167C166C165C164C163C189
:1000100062C161C1F6C35FC15EC15DC15CC1040361
:1000200009041203450074006800650072006B004B
:100030006900740016034F00700065006E004200F6
:100040006500610063006F006E0012011001FF0087
:100050000008C016DC0500010102000109021200BF
:100060000101008032090400000000000000FF8050
:100070008080808080808080808080E08094FC7C94
:100080003C1C0C0484C4E4F48080808C803280604A
:1000900088A8904028D0082078B048E0A0F068D820
:1000A0005010C030187098B8C88080808080806000
:1000B00088A8904028D0082078B048E0A0F068D800
:1000C0005010C030187098B8C80000000000000040
:1000D0005F00000007000700147F147F14242A7FAC
:1000E0002A12231308646236495522500005030082
:1000F00000001C2241000041221C00082A1C2A0882
:1001000008083E08080050300000080808080800E9
:100110006060000020100804023E5149453E004244
:100120007F400042615149462141454B311814122C
:100130007F1027454545393C4A4949300171090539
:10014000033649494936064949291E00363600001A
:1001500000563600000008142241141414141441EF
:10016000221408000201510906324979413E7E11EC
:1001700011117E7F494949363E414141227F41412B
:10018000221C7F494949417F090901013E414151F2
:10019000327F0808087F00417F41002040413F0135
:1001A0007F081422417F404040407F0204027F7F4D
:1001B0000408107F3E4141413E7F090909063E4146
:1001C00051215E7F09192946464949493101017F7C
:1001D00001013F4040403F1F2040201F7F2018204A
:1001E0007F63140814630304780403615149454391
:1001F00000007F4141020408102041417F000004BB
:10020000020102044040404040000102040020542A
:100210005454787F48444438384444442038444453
:10022000487F3854545418087E0901020814545465
:100230003C7F0804047800447D40002040443D0099
:10024000007F10284400417F40007C041804787C23
:100250000804047838444444387C141414080814FE
:1002600014187C7C080404084854545420043F4467
:1002700040203C4040207C1C2040201C3C40304022
:100280003C44281028440C5050503C4464544C4486
:10029000000836410000007F0000004136080000E1
:1002A00011241FBECFE5D2E0DEBFCDBF10E0A0E637
:1002B000B0E0E8E3F1E102C005900D92AE37B1077E
:1002C000D9F710E0AEE7B0E001C01D92A23FB10740
:1002D000E1F7C8D32FC794CE1F93CF93DF936091DC
:1002E000C700635067FD9FC08091C400CCE0D0E0A0
:1002F000C81BD109C553DF4F8091C3008D3209F06F
:1003000080C0683009F08DC083EC8093B7008AE527
:100310008093600010927E008881807631F0CE015B
:1003200095D28F3F09F45CC062C09A811092C000E0
:100330008981882331F41092C10020EC30E082E002
:100340004AC0853019F49093C8003BC0863081F5CF
:100350008B81813019F48AE490E015C0823019F461
:100360008CE590E010C08330F1F4992341F48EE1E4
:1003700090E09093C6008093C50084E015C0913052
:1003800041F482E290E09093C6008093C50082E140
:100390000BC0923041F484E390E09093C6008093C8
:1003A000C50086E101C080E090E490937E001FC00C
:1003B000883059F0893019F49093CA0002C08A300D
:1003C00039F020EC30E080E006C02AEC30E002C0DA
:1003D00020EC30E081E03093C6002093C50007C0D8
:1003E000988197FD8E8190E890937E0007C09F8151
:1003F000992321F49E81981708F4892F8093610036
:1004000010C080917E0087FF0CC0CE019FD28F3F2D
:1004100021F48EE18093600004C0882311F01092D3
:1004200061001092C7008091600084FF4CC08091F1
:1004300061008F3F09F447C0182F893008F018E099
:10044000811B809361008091B70098E88927809391
:10045000B700112361F18091C5009091C6003091E1
:100460007E00212F215036FF0EC030E0A9014754F5
:100470005F4FFC01A8EBB0E064916D933196A41737
:10048000B507D1F70CC0DC0130E0A90147545F4F3C
:10049000E8EBF0E06D916193E417F507D9F72F5F72
:1004A0003F4F280F391F3093C6002093C50088EBBB
:1004B00090E0612F3ED01C5F1C3019F08FEF8093CD
:1004C00061001093600084E196B3957031F481501F
:1004D000D9F71092C8001092C20011E0811110E00B
:1004E00080917F00811729F0112309F469D21093BC
:1004F0007F00DF91CF911F91089585B7826085BFFE
:100500008BB780648BBF0895A82FB92F80E090E04F
:1005100041E050EA609530E009C02D91822797951F
:10052000879510F084279527305EC8F36F5FA8F396
:100530000895EADF8D939D930895A6E08827992773
:10054000AA9569F00197E1F3B099FCCFB09BFECF7B
:1005500081E09927A6B3019611F0A570D9F7089507
:10056000CF93CFB7CF93C395B09BE9F7B09B0BC0A8
:10057000B09B09C0B09B07C0B09B05C0B09B03C037
:10058000B09B01C0D3C00F92DF93C091C400DD27A0
:10059000C553DF4F012EB09B03C0DF910F90E6CF14
:1005A0002F930F931F934F932FEF4F6F06B300FBC3
:1005B00020F95F933F9350E03BE065C016B30126FE
:1005C000502950FDC89556B3012700FB25F92F731C
:1005D00006B3B1F05027102710FB26F906B22230DF
:1005E000F0F000C016B3012700FB27F901265029BF
:1005F00006B22430E8F54F77206816B30000F6CF36
:1006000050274F7D206206B2102F000000C006B3B5
:1006100000265029102710FB26F906B2E2CF4F7BA7
:1006200006B3206400C0DACF01265029157006B247
:1006300069F14E7F2160012F16B328C00026502992
:100640004D7F06B22260102F29C0012650294B7F12
:1006500006B22460012F2DC016B301265029477F12
:100660002860000006B22EC04F7E06B3206130C065
:10067000422706B3499300265029102706B24FEFB0
:1006800010FB20F9297F16B379F2157059F1012674
:10069000502906B2012700FB21F9237F06B371F22E
:1006A000002650293150D0F006B2102710FB22F955
:1006B000277E16B351F201265029012700FB06B20E
:1006C00023F92F7C49F2000006B3102710FB24F910
:1006D0000026502906B22F7939F270CF10E41ABFE4
:1006E000002717C03B503195C31BD04010E41ABF00
:1006F0000881033CF9F00B34E9F02091C200198124
:10070000110F1213EDCF093651F10D3211F0013EE8
:1007100039F70093C9003F915F914F911F910F915D
:100720002F91DF910F90CAB7C6FD1DCFCF91CFBFDC
:10073000CF9118952091C900222369F31091C70029
:10074000112321F5343022F13093C7002093C300E8
:100750001091C4003BE0311B3093C40019C00091DC
:10076000C70001309CF40AE53091600034FD11C0EF
:1007700000936000C7EBD0E010C0052710E000C078
:1007800021C0052710E0C89508BB14C03AE501C098
:1007900032ED032EC0E0D0E032E017B31560C09A0E
:1007A00008B317BB55E020E84FEF20FF052708BB33
:1007B000279517951C3F28F700004552B0F720FFFA
:1007C0000527279508BB17951C3FB8F629913A9540
:1007D00061F70A7F1091C800110F08BBC250D040CA
:1007E00011F01093C20010E41ABF016017B31A7F12
:1007F000402F4A7F54E05A95F1F708BB17BB48BB1E
:100800008ACF1F920F920FB60F9211248F939F934E
:10081000AF93BF938091E2009091E300A091E40038
:10082000B091E5000196A11DB11D8093E200909367
:10083000E300A093E400B093E500BF91AF919F91D6
:100840008F910F900FBE0F901F901895CF93DF934D
:10085000FC0181818823A1F482818093B30083818C
:100860008093B40084818093B50085818093B60025
:1008700083EB90E09093C6008093C50084E063C052
:100880008130A1F562816093E80080E090E041D47E
:10089000C4E8D0E0CE0163E070E048E250E013D459
:1008A000D093F100C093F00010928000109283006A
:1008B00010928200E091E800F0E0EE0FFF1FEE5989
:1008C000FF4FC081D1819E0140E050E060E67AEEAA
:1008D00080E090E0BBD33093E7002093E60081E016
:1008E00090E0BE0124D41092EB002CC0823061F461
:1008F0008091E8008093B30083EB90E09093C60072
:100900008093C50081E01FC0833059F41092B2007B
:1009100086818093B1008A3298F089E28093B10099
:100920000FC0843079F4868197818932910508F06F
:1009300089E224E830E03093C6002093C50003C06C
:100940008FEF01C080E0DF91CF910895CF93DF93C7
:100950002091B100261708F4622F261B2093B100C6
:100960003091B200DC0180E008C09D91E82FE30FD8
:10097000F0E0EC57FF4F90838F5F8617B0F3630F63
:100980006093B2002223A1F4C4E8D0E0CE0163E07A
:1009900070E048E250E0B4D3D093F100C093F0008F
:1009A0001092800010928300109282001092EB004F
:1009B00081E09091B100911180E0DF91CF91089595
:1009C000DF92EF92FF920F931F93CF93DF93F894F0
:1009D000C8E0D0E0FF2490E8E92EDE2CDF0CD1BE89
:1009E000ACDD082F192F89E0043318070CF4FD2C17
:1009F000E694219791F78F2D815081BFCF2DD0E0C4
:100A0000219610C09ADD8453994097FF03C09095BA
:100A100081959F4F8017910714F4F1B68C0181B72F
:100A20008F5F81BF81B790E0C817D9075CF7F1BE2F
:100A3000789461B78CE290E06CD3DF91CF911F91F5
:100A40000F91FF90EF90DF9008959C0140E050E0FF
:100A500060E67AEE80E090E0F9D23093E7002093F0
:100A6000E60008955F926F927F928F929F92AF926D
:100A7000BF92CF92DF92EF92FF920F931F93CF938B
:100A8000DF938CE290E02FD38F3F09F081BF2EE0FF
:100A900088E190E00FB6F894A89581BD0FBE21BD06
:100AA0002CDDB89A80E007C0A895ECE1F0E1319721
:100AB000F1F700C000008150B9F7B8988AB582609C
:100AC0008ABD84E083BF80E889BD89B7806189BF22
:100AD00081E080BF80E68CBD1BBC8FEF8DBD96E0B2
:100AE00097BDBC9AC498BB9AC39A8BBDC39AC4E8FD
:100AF000D0E089E2FE0111928A95E9F7D093F100E6
:100B0000C093F00080E090E0EED28093E800109275
:100B1000EB0081E090E0EFD29C0140E050E060E625
:100B20007AEE80E090E092D23093E7002093E600E6
:100B3000CE0163E070E048E250E0C5D27894F7E07F
:100B4000CF2EE6E06E2E5E01DC2EEB2C75E0F72E4C
:100B500063E0B62E54E6A52E44E0942E88248394B8
:100B600032E0732ECCEDD5E029E0522EF89480913E
:100B7000E2009091E300A091E400B091E500809341
:100B8000AD009093AE00A093AF00B093B000789406
:100B90008091E800883009F411C1883020F0893054
:100BA00009F039C2E8C19091EB00933020F4913004
:100BB00008F0C4C004C0963008F033C2FDC0809174
:100BC000F0009091F10020E08438920761F4809168
:100BD0008000882341F4E0918400F0E0E25BFF4F65
:100BE000E491E093800040918000442309F492C096
:100BF000403821F04F3F09F057C020C08091E600F7
:100C00009091E70063E070E00FD2A0E0B0E02091A7
:100C1000AD003091AE004091AF005091B000820F16
:100C2000931FA41FB51F8093EC009093ED00A09339
:100C3000EE00B093EF009092EB001FC08091E600B1
:100C40009091E70067E070E0EFD1A0E0B0E0209184
:100C5000AD003091AE004091AF005091B000820FD6
:100C6000931FA41FB51F8093EC009093ED00A093F9
:100C7000EE00B093EF00F092EB00E091F000F09105
:100C8000F100CF0101969093F1008093F000E18193
:100C9000EE2319F410928000C4C1F0E0E25BFF4F34
:100CA000E491E0938000BDC18091E6009091E7005F
:100CB0000091AD001091AE002091AF003091B000D6
:100CC00047FF14C063E070E0AFD1A0E0B0E0800F58
:100CD000911FA21FB31F8093EC009093ED00A0938F
:100CE000EE00B093EF007092EB0010C0A0E0B0E017
:100CF000800F911FA21FB31F8093EC009093ED0013
:100D0000A093EE00B093EF008092EB00440F40936D
:100D1000800087C184E890E063E070E048E250E042
:100D2000D2D1D092F000E092F10010928000809138
:100D3000E6009091E70067E070E087C0835085305F
:100D400018F0C39AABBC02C0C39A1BBC2091AD0083
:100D50003091AE004091AF005091B0008091EC0016
:100D60009091ED00A091EE00B091EF0082179307F3
:100D7000A407B50708F055C18091E800833018F04A
:100D8000883028F402C0C39A01C0C3981BBC80916C
:100D9000E6009091E700A0E0B0E0820F931FA41F4F
:100DA000B51F8093EC009093ED00A093EE00B093FC
:100DB000EF00B092EB0035C11BBC12C18091EB007B
:100DC000873030F4853008F0D3C0882329F01DC166
:100DD000873009F01AC182C0A091F000B091F100F3
:100DE000209182008C9190E065E070E01DD1FC01C3
:100DF000E20FF11DE75DFF4FE491E09381002F5F6B
:100E000020938200263008F45AC010928200CD014F
:100E100001969093F1008093F00011968C911197B8
:100E2000882369F584E890E063E070E048E250E0F0
:100E30004AD1D092F000E092F100109281008091AE
:100E4000E6009091E70064EF71E0EED0A0E0B0E042
:100E50002091AD003091AE004091AF005091B000B4
:100E6000820F931FA41FB51F8093EC009093ED0099
:100E7000A093EE00B093EF00F092EB00D2C080910F
:100E8000E6009091E7006AE070E0CED0A0E0B0E02C
:100E90002091AD003091AE004091AF005091B00074
:100EA000820F931FA41FB51F8093EC009093ED0059
:100EB000A093EE00B093EF006092EB00B2C080917F
:100EC000E6009091E700A0E0B0E02091AD00309105
:100ED000AE004091AF005091B0003BC02091830024
:100EE000E22FF0E0EA58FF4F80818BBD80918100B6
:100EF00090E002C0959587952A95E2F780FF02C0A1
:100F0000C39A01C0C3982091AD003091AE004091CA
:100F1000AF005091B0008091EC009091ED00A09155
:100F2000EE00B091EF0082179307A407B50708F011
:100F300078C0809183008F5F80938300883018F0A1
:100F40001092830062C08091E6009091E700A0E0DB
:100F5000B0E0820F931FA41FB51F8093EC00909305
:100F6000ED00A093EE00B093EF00C092EB0059C0EB
:100F70001BBCC39835C09091EB00992321F09930A8
:100F800009F046C026C0809183008F5F8093830064
:100F9000883010F0109283008091E6009091E70075
:100FA000A0E0B0E02091AD003091AE004091AF00E4
:100FB0005091B000820F931FA41FB51F8093EC00C7
:100FC0009093ED00A093EE00B093EF005092EB00F1
:100FD00028C0E0918300F0E0EA58FF4F80818BBD8C
:100FE0002091AD003091AE004091AF005091B00023
:100FF0008091EC009091ED00A091EE00B091EF0097
:1010000082179307A407B50760F41092EB0009C09C
:101010008093EB0006C01092E800D093E700C093E5
:10102000E600A89559D9A2CD5527002480FF02C01B
:10103000060E571F660F771F6115710521F09695F3
:101040008795009799F7952F802D089597FB092E86
:1010500005260ED057FD04D014D00AD0001C38F459
:1010600050954095309521953F4F4F4F5F4F0895D4
:10107000F6F790958095709561957F4F8F4F9F4FB4
:101080000895A1E21A2EAA1BBB1BFD010DC0AA1FC9
:10109000BB1FEE1FFF1FA217B307E407F50720F0E1
:1010A000A21BB30BE40BF50B661F771F881F991F5C
:1010B0001A9469F760957095809590959B01AC01A5
:1010C000BD01CF010895DC01CB01FC01E199FECF08
:1010D00006C0FFBBEEBBE09A31960DB20D924150B7
:1010E0005040B8F70895E199FECF9FBB8EBBE09AC0
:1010F00099278DB30895A8E1B0E042E050E0E5CF34
:10110000DC01CB0102C02D9105D041505040D8F7F1
:101110000895262FE199FECF1CBA9FBB8EBB2DBB35
:101120000FB6F894E29AE19A0FBE01960895F1DFA6
:08113000272FF0CFF894FFCF48
:101138005AFF280014000C00280014000C00F401C9
:0E11480014052C01D007FCB98C55351700009A
:00000001FF
