:1000000069C1BCC282C181C180C17FC17EC17DC1C5
:100010007CC17BC1F9C479C178C177C176C1E1C522
:10002000E7C5E9C5F8C5E7C5F6C510C630C640C680
:1000300066C668C675C677C67DC681C68BC698C6B5
:1000400009021200010100803209040000000000D2
:10005000000012011001FF000008C016DC050001BD
:100060000102000116034F00700065006E0042009F
:100070006500610063006F006E00120345007400AC
:100080006800650072006B006900740004030904D5
:10009000FCB98C553517009001C80078000A009013
:1000A00001C80078000A008813AC0DD606A00F1016
:1000B00027000000000000005F00000007000700AC
:1000C000147F147F14242A7F2A12231308646236B3
:1000D000495522500005030000001C224100004148
:1000E000221C00082A1C2A0808083E080800503074
:1000F00000000808080808006060000020100804DC
:10010000023E5149453E00427F400042615149460E
:100110002141454B311814127F1027454545393C84
:100120004A494930017109050336494949360649AA
:1001300049291E003636000000563600000008141B
:10014000224114141414144122140800020151090C
:1001500006324979413E7E1111117E7F4949493667
:100160003E414141227F4141221C7F494949417F13
:10017000090901013E414151327F0808087F0041D1
:100180007F41002040413F017F081422417F4040D1
:1001900040407F0204027F7F0408107F3E414141BE
:1001A0003E7F090909063E4151215E7F0919294612
:1001B000464949493101017F01013F4040403F1F0D
:1001C0002040201F7F2018207F631408146303043D
:1001D000780403615149454300007F41410204080E
:1001E000102041417F0000040201020440404040D1
:1001F00040000102040020545454787F484444389D
:100200003844444420384444487F385454541808EF
:100210007E090102081454543C7F08040478004409
:100220007D40002040443D00007F10284400417F75
:1002300040007C041804787C080404783844444462
:10024000387C14141408081414187C7C080404085E
:100250004854545420043F4440203C4040207C1CDF
:100260002040201C3C4030403C44281028440C5086
:1002700050503C4464544C44FF8080808080808097
:100280008080808080E08094FC7C3C1C0C0484C4D2
:10029000E4F48080808C8032806088A8904028D0F0
:1002A000082078B048E0A0F068D85010C03018702E
:1002B00098B8C88080808080806088A8904028D0CE
:1002C000082078B048E0A0F068D85010C03018700E
:1002D00098B8C80011241FBECFE5D2E0DEBFCDBF65
:1002E00010E0A0E6B0E0ECE9FEE102C005900D925E
:1002F000A236B107D9F712E0A2E6B0E001C01D9224
:10030000A631B107E1F7BED5C7CD7ACECF93DF9343
:100310006091CE01635067FD9BC08091CB01CCE022
:10032000D0E0C81BD109CE52DE4F8091CA018D3278
:1003300009F07DC0683009F089C083EC8093BE016C
:100340008AE580936000109262008881807619F0BF
:10035000CE0136D459C09A811092C701898181118A
:1003600006C01092C80127EC31E082E049C0853018
:1003700019F49093CF0138C0863081F58B8181309C
:1003800019F482E590E004C0823041F480E490E00A
:100390009093CD018093CC0182E11CC08330C9F4DD
:1003A000911108C08CE890E09093CD018093CC012E
:1003B00084E010C0913019F48AE790E0E9CF9230E0
:1003C00041F484E690E09093CD018093CC0186E1E6
:1003D00001C080E090E49093620016C0883069F01C
:1003E000893029F49093D10127EC31E004C027EC47
:1003F00031E08A3021F080E003C021ED31E081E07E
:100400003093CD012093CC018F3F39F4988197FD33
:100410008E8190E89093620007C09F81911104C083
:100420009E81981708F4892F809361000FC08091F6
:10043000620087FF0BC0CE01F2D18F3F21F48EE125
:100440008093600003C08111109261001092CE0170
:100450008091600084FF46C0809161008F3F09F465
:1004600041C0C82F893008F0C8E08C1B8093610020
:100470008091BE0198E889278093BE01CC2331F199
:100480002091CC013091CD018091620086FF0BC09C
:10049000F901AFEBB1E08C2F8A0F94919D933196C7
:1004A0008A13FBCF09C0D901EFEBF1E08C2F8E0F3F
:1004B0009D9191938E13FCCF8C2F815090E00196EB
:1004C000820F931F9093CD018093CC016C2F8FEB03
:1004D00091E03DD0CC5FCC3019F08FEF809361007C
:1004E000C093600084E196B3957031F48150D9F7E0
:1004F0001092CF011092C901C1E08111C0E080913A
:1005000063008C1729F0C11101C0E7D1C0936300CB
:10051000DF91CF91089585B7826085BF8BB78064E6
:100520008BBF0895A82FB92F80E090E041E050EAFA
:10053000609530E009C02D9182279795879510F03E
:1005400084279527305EC8F36F5FA8F30895EADF2C
:100550008D939D930895A6E088279927AA9569F021
:100560000197E1F3B099FCCFB09BFECF81E09927D2
:10057000A6B3019611F0A570D9F70895CF93CFB720
:10058000CF93C395B09BE9F7B09B0BC0B09B09C05C
:10059000B09B07C0B09B05C0B09B03C0B09B01C01F
:1005A000D3C00F92DF93C091CB01DD27CE52DE4F37
:1005B000012EB09B03C0DF910F90E6CF2F930F93D6
:1005C0001F934F932FEF4F6F06B300FB20F95F93FC
:1005D0003F9350E03BE065C016B30126502950FD23
:1005E000C89556B3012700FB25F92F7306B3B1F068
:1005F0005027102710FB26F906B22230F0F000C079
:1006000016B3012700FB27F90126502906B2243032
:10061000E8F54F77206816B30000F6CF50274F7DDE
:10062000206206B2102F000000C006B30026502939
:10063000102710FB26F906B2E2CF4F7B06B32064E9
:1006400000C0DACF01265029157006B269F14E7F3D
:100650002160012F16B328C0002650294D7F06B215
:100660002260102F29C0012650294B7F06B224603A
:10067000012F2DC016B301265029477F28600000A6
:1006800006B22EC04F7E06B3206130C0422706B3AB
:10069000499300265029102706B24FEF10FB20F98E
:1006A000297F16B379F2157059F10126502906B247
:1006B000012700FB21F9237F06B371F200265029A0
:1006C0003150D0F006B2102710FB22F9277E16B366
:1006D00051F201265029012700FB06B223F92F7C95
:1006E00049F2000006B3102710FB24F90026502918
:1006F00006B22F7939F270CF10E41ABF002717C065
:100700003B503195C31BD04010E41ABF0881033C15
:10071000F9F00B34E9F02091C9011981110F12137E
:10072000EDCF093651F10D3211F0013E39F700934A
:10073000D0013F915F914F911F910F912F91DF91C8
:100740000F90CAB7C6FD1DCFCF91CFBFCF911895DF
:100750002091D001222369F31091CE01112321F5BC
:10076000343022F13093CE012093CA011091CB0195
:100770003BE0311B3093CB0119C00091CE01013019
:100780009CF40AE53091600034FD11C000936000D4
:10079000CEEBD1E010C0052710E000C021C0052736
:1007A00010E0C89508BB14C03AE501C032ED032E35
:1007B000C0E0D0E032E017B31560C09A08B317BBB1
:1007C00055E020E84FEF20FF052708BB2795179538
:1007D0001C3F28F700004552B0F720FF052727955A
:1007E00008BB17951C3FB8F629913A9561F70A7F27
:1007F0001091CF01110F08BBC250D04011F01093DF
:10080000C90110E41ABF016017B31A7F402F4A7F55
:1008100054E05A95F1F708BB17BB48BB8ACF20912B
:100820007300261708F4622F261B20937300309163
:100830007200FC01432F481B05C09191B0E0AC58F9
:10084000BF4F9C939E2FA42FAE0F981B9617A8F313
:10085000630F6093720021113AC08091F4018130DE
:1008600059F028F0823069F0833079F527C048E2EA
:1008700050E069E271E026C048E250E060E071E0DB
:1008800021C041E050E064E770E080E090E0B4DA3D
:1008900080E090E094DA99278130910519F0029771
:1008A000A1F405C046E150E065E470E004C046E113
:1008B00050E06EE270E085E790E006C042EA50E06A
:1008C0006DE570E084E790E0CDDA1092000281E0FF
:1008D00090917300911180E00895DF92EF92FF9262
:1008E0000F931F93CF93DF93F89408E010E0F12C5F
:1008F00080E8E82EDE2CDF0CD1BE2DDEEC01C43307
:1009000089E0D8070CF4FD2CE6940150110991F709
:100910008F2D815081BF0F2D10E00F5F1F4F10C032
:100920001ADE8453994097FF03C0919581959109F0
:100930008C179D0714F4F1B6EC0181B78F5F81BF6E
:1009400081B790E0081719075CF7F1BE789461B79A
:1009500087E591E0DF91CF911F910F91FF90EF908C
:10096000DF9089CA9B01AC0160EC77E289E090E0FE
:1009700004DA2093F5013093F6014093F701509388
:10098000F80108958F3108F08EE1682F70E080E063
:1009900090E02AE135E740E050E0C2D90895B199EE
:1009A00011C08091BA019091BB018330910528F468
:1009B00001969093BB018093BA011092BD011092F1
:1009C000BC0110C08091BC019091BD0183309105A4
:1009D00028F401969093BD018093BC011092BB0155
:1009E0001092BA018091BA019091BB01039718F05F
:1009F00081E08093F2018091BC019091BD01039749
:100A000010F01092F20108951F920F920FB60F92FC
:100A100011242F933F934F935F936F937F938F9303
:100A20009F93AF93BF93EF93FF938091EE019091CB
:100A3000EF01A091F001B091F1010196A11DB11D4E
:100A40008093EE019093EF01A093F001B093F10138
:100A5000A6DFFF91EF91BF91AF919F918F917F9111
:100A60006F915F914F913F912F910F900FBE0F901B
:100A70001F90189583EAE7E1F1E0DF011D928A9566
:100A8000E9F78091E90148E250E0813021F469E220
:100A900071E0CF0104C060E071E087E191E0C5D969
:100AA00087E191E0909315028093140210926900FF
:100AB0000895CF92DF92EF92FF928091F9018A30F0
:100AC00001F542EA50E06DE570E087E191E0ADD9D3
:100AD00087E191E0909315028093140210926900CF
:100AE00080916A0090916B00A0916C00B0916D00B4
:100AF0008093050290930602A0930702B093080228
:100B000058C0B8DFC0906A00D0906B00E0906C00D5
:100B1000F0906D00609103026F3108F06EE170E0BB
:100B200080E090E02AE135E740E050E0F9D86C0D34
:100B30007D1D8E1D9F1D6093EA017093EB018093D4
:100B4000EC019093ED011092650010926600E09127
:100B5000F901E83041F484E591E07FD990930B02EC
:100B600080930A020BC0F0E0EE0FFF1FE956FF4F23
:100B70008591949180930A0290930B0220910A022E
:100B800030910B0240E050E060EC77E289E090E0C9
:100B9000F4D82093F5013093F6014093F701509378
:100BA000F801C0920502D0920602E0920702F0928C
:100BB000080210920002FF90EF90DF90CF9008950E
:100BC0000F931F93CF93DF93EC012981422F50E0C5
:100BD000FA013197E131F10508F0CBC0E15FFF4F39
:100BE00009946A816093F90186E591E044D9C0C017
:100BF0008091F901A1C0109272008E81843A08F4AC
:100C000001C083EA80937300233019F41092F40139
:100C1000ADC081E0A9C08E819F818932910510F419
:100C2000C82F01C0C9E248E250E0243019F469E25B
:100C300071E002C060E071E084E790E0F6D824E75C
:100C400030E03093CD012093CC0194C08A8190E0B4
:100C500068EE73E053D8EC0180930A02D0930B0244
:100C60009E01442737FD4095542F60EC77E289E0E0
:100C700090E083D82093F5013093F6014093F7017B
:100C80005093F801BE0184E591E003D972C08091D0
:100C90000A0290910B0268EE73E05BD860936E00DD
:100CA0008EE690E09093CD018093CC01C1E062C0CC
:100CB0006A8183E591E0DFD86A81609303026F3136
:100CC00008F06EE170E080E090E02AE135E740E076
:100CD00050E026D800916A0010916B0020916C00C2
:100CE00030916D00600F711F821F931F6093EA01A6
:100CF0007093EB018093EC019093ED013AC08091E9
:100D000003021AC08A81813021F48093E90161E0F5
:100D100004C082E08093E90162E08CE590E008C0C5
:100D20008091E90109C06A816093090282E591E03E
:100D3000A2D81FC08091090280936E00B1CF10929B
:100D400072008E81843A08F401C083EA80937300B4
:100D500082E00AC0109272008E81843A08F401C0C9
:100D600083EA8093730083E08093F401CFEF02C0A5
:100D7000A0DEC0E08C2FDF91CF911F910F910895DD
:100D8000CF92DF92EF92FF9281E080936400809196
:100D9000F9018093FE0180910A0290910B029093D9
:100DA0001302809312028091E901809304028091E2
:100DB00069008093680080911402909115029093CD
:100DC0000D0280930C028091050290910602A09181
:100DD0000702B09108028093FA019093FB01A0935F
:100DE000FC01B093FD01809100028093F30188E043
:100DF0008093F90180E29EE490930B0280930A02B3
:100E00008EE190E0A0E0B0E08093F5019093F601D0
:100E1000A093F701B093F80182E08093E9012ADE04
:100E20008091FE01C0906A00D0906B00E0906C0051
:100E3000F0906D00893029F428EC30E040E050E07B
:100E400004C023E030E040E050E06091F501709193
:100E5000F6018091F7019091F80162D76C0D7D1D2C
:100E60008E1D9F1D609305027093060280930702FA
:100E70009093080284E080930002FF90EF90DF904F
:100E8000CF90089587E591E0E0D78F3F09F081BFCB
:100E90002EE088E190E00FB6F894A89581BD0FBED2
:100EA00021BD39DBB89A80E007C0A895ACE1B0E17C
:100EB0001197F1F700C000008150B9F7B8988AB5D2
:100EC00082608ABD84E083BF80E889BD89B7806184
:100ED00089BF81E080BF80E68CBD1BBC8FEF8DBDDC
:100EE00096E097BDBC9AC498BB9AC39AB998C19A28
:100EF0008BBDC39AE7E1F1E083EADF011D928A9599
:100F0000E9F7F0931502E093140286E591E09DD78E
:100F10008093F90110920002883041F484E591E059
:100F20009CD790930B0280930A020CC0E82FF0E04C
:100F3000EE0FFF1FE956FF4F8591949180930A02AF
:100F400090930B0220910A0230910B0240E050E096
:100F500060EC77E289E090E010D72093F5013093C0
:100F6000F6014093F7015093F8018CE590E06DD7BE
:100F7000C82F8093E90182E591E067D78093090249
:100F8000C13029F448E250E069E271E006C0C230A5
:100F900039F448E250E060E071E087E191E045D744
:100FA00083E591E052D780930302C0906A00D0900D
:100FB0006B00E0906C00F0906D00682F8F3108F0AE
:100FC0006EE170E080E090E02AE135E740E050E03B
:100FD000A7D66C0D7D1D8E1D9F1D6093EA01709339
:100FE000EB018093EC019093ED01B4E0CB0EB3E9FB
:100FF000DB1EB4E0EB1EF11CC0920E02D0920F0279
:10100000E0921002F092110254DD7894C8E017E0EB
:10101000D5E001E0E5E9F0E07490E4E9F0E0449027
:10102000E3E9F0E05490E6E9F0E06490F894809110
:10103000EE019091EF01A091F001B091F101809348
:101040006A0090936B00A0936C00B0936D0078944D
:101050008091F20181112DDD40916A0050916B0069
:1010600060916C0070916D0080910E0290910F0262
:10107000A0911002B091110284179507A607B70737
:10108000C8F480916400811115C07ADE80916A00F5
:1010900090916B00A0916C00B0916D008C5F9C46AC
:1010A000AB4FBF4F80930E0290930F02A09310029C
:1010B000B09311028091F901893009F43EC248F0E1
:1010C0008B3009F47CC308F440C58C3009F013C69A
:1010D000BFC590910002933020F4913008F0D8C140
:1010E00007C0973008F414C29D3009F004C6CAC185
:1010F000C39820910302809014029090150222233D
:1011000009F440C0C0906A00D0906B00E0906C0081
:10111000F0906D008091EA019091EB01A091EC01BB
:10112000B091ED01C816D906EA06FB0658F1E7E1D1
:101130008E16E1E09E0631F5622F2F3108F06EE148
:1011400070E080E090E02AE135E740E050E0E8D54B
:101150006C0D7D1D8E1D9F1D6093EA017093EB0148
:101160008093EC019093ED0127E030E040E050E007
:101170006091F5017091F6018091F7019091F8016D
:10118000CFD52AC0F7E18F16F1E09F0699F580913F
:10119000690081112FC0E0911701F0E0E85AFD4F7E
:1011A000E491E09369008091F901883019F123E01E
:1011B00030E040E050E06091F5017091F6018091DF
:1011C000F7019091F801ACD5C0906A00D0906B0007
:1011D000E0906C00F0906D006C0D7D1D8E1D9F1DCC
:1011E00060930502709306028093070290930802B1
:1011F0008DE07FC5B0906900BB2009F488C0C09025
:101200006A00D0906B00E0906C00F0906D0080E878
:10121000B81621F0AFEFBA1241C01DC023E030E094
:1012200040E050E06091F5017091F6018091F70186
:101230009091F80175D56C0D7D1D8E1D9F1D6093DD
:10124000050270930602809307029093080284E0DF
:10125000809300021BC027E030E040E050E0609146
:10126000F5017091F6018091F7019091F80158D540
:101270006C0D7D1D8E1D9F1D6093050270930602EF
:101280008093070290930802D0930002C401019654
:101290009093150280931402D40142C3B7FE1DC07F
:1012A00023E030E040E050E06091F5017091F601FC
:1012B0008091F7019091F80133D56C0D7D1D8E1D45
:1012C0009F1D60930502709306028093070290931E
:1012D000080282E08093000216C08091F50190918F
:1012E000F601A091F701B091F8018C0D9D1DAE1D86
:1012F000BF1D8093050290930602A0930702B0934E
:10130000080200930002BB0CB0926900F4C4809103
:101310006400882309F455C08091FE018093F9018F
:10132000209112023091130230930B0220930A0293
:1013300040E050E060EC77E289E090E01ED5209339
:10134000F5013093F6014093F7015093F801809135
:10135000680080936900809104028093E9018ADB30
:1013600080910C0290910D029093150280931402CB
:1013700080916A0090916B00A0916C00B0916D001B
:101380008C5F9C46AB4FBF4F80930E0290930F0231
:10139000A0931002B0931102109264008091FA01A0
:1013A0009091FB01A091FC01B091FD018093050299
:1013B00090930602A0930702B09308028091F30174
:1013C00098C458DB80910302C0906A00D0906B00F3
:1013D000E0906C00F0906D0081111CC027E030E0BF
:1013E00040E050E06091F5017091F6018091F701C5
:1013F0009091F80195D46C0D7D1D8E1D9F1D6093FD
:101400000502709306028093070290930802D0931E
:10141000000232C08090EA019090EB01A090EC01B4
:10142000B090ED0127E030E040E050E06091F50140
:101430007091F6018091F7019091F80171D46C0DD3
:101440007D1D8E1D9F1D86169706A806B90648F4B9
:10145000609305027093060280930702909308023E
:1014600008C08092050290920602A0920702B092F4
:10147000080286E0809300028091F901883009F427
:101480003AC411C11BBC8450853008F054C095C1CA
:101490008450C39A853020F0809109028BBD01C031
:1014A0001BBC40916A0050916B0060916C00709180
:1014B0006D008091050290910602A0910702B09103
:1014C000080284179507A607B70708F014C480918F
:1014D000F901843018F0893028F402C0C39A01C0A1
:1014E000C3981BBC8091F5019091F601A091F70182
:1014F000B091F801840F951FA61FB71F80930502B6
:1015000090930602A0930702B093080283E0F1C310
:101510001BBC963009F451C1843009F44EC18530AA
:1015200009F44BC1863009F448C1873009F445C13C
:10153000883009F442C1C39AC3C380910002853048
:1015400009F43AC118F4882341F0CFC3873009F475
:1015500033C1883009F0C9C3E3C0209103022223BC
:1015600069F1C0906A00D0906B00E0906C00F09040
:101570006D008091EA019091EB01A091EC01B09196
:10158000ED01C816D906EA06FB06C0F0622F2F311E
:1015900008F06EE170E080E090E02AE135E740E09D
:1015A00050E0BED36C0D7D1D8E1D9F1D6093EA0122
:1015B0007093EB018093EC019093ED01A0911402E4
:1015C000B0911502E1E0A731BE07A1F48091670058
:1015D000811110C08091170190E0809765E070E064
:1015E0008DD38F549F4F00936600FC0184918093AC
:1015F000670085C0209166008C9190E0809765E03F
:1016000070E07CD3820F911D8F549F4F2F5F2093EA
:101610006600FC01849180936700263008F46FC057
:1016200010926600CD0101969093150280931402EA
:1016300011968C9181114DC01DDA80910302C090EA
:101640006A00D0906B00E0906C00F0906D0081110A
:1016500001C0BDC18090EA019090EB01A090EC0127
:10166000B090ED0128EC30E040E050E06091F501F1
:101670007091F6018091F7019091F80151D36C0DB2
:101680007D1D8E1D9F1D86169706A806B90608F4B7
:10169000AFC18092050290920602A0920702B0921A
:1016A0000802D09300026CDB80916A0090916B007D
:1016B000A0916C00B0916D008C5F9C46AB4FBF4F0A
:1016C00080930E0290930F02A0931002B093110228
:1016D00012C324E130E040E050E06091F5017091E8
:1016E000F6018091F7019091F8011AD3C0906A0039
:1016F000D0906B00E0906C00F0906D0007C280917C
:10170000F5019091F601A091F701B091F801409197
:101710006A0050916B0060916C0070916D003DC04B
:1017200020916500E22FF0E0E057FF4FE491EBBD20
:101730008091670090E002C0959587952A95E2F721
:1017400080FF02C0C39A01C0C39840916A005091C3
:101750006B0060916C0070916D008091050290911A
:101760000602A0910702B091080284179507A60708
:10177000B70708F0C0C2809165008F5F8093650055
:10178000883018F010926500B0C28091F5019091F8
:10179000F601A091F701B091F801840F951FA61FE3
:1017A000B71F8093050290930602A0930702B0939F
:1017B0000802C09300029FC21BBCC39881C28091E3
:1017C0000002853009F4BEC118F4882341F08DC2AF
:1017D000873009F4B7C1883009F087C245C1C39882
:1017E0001BBC20910302222369F1C0906A00D090B3
:1017F0006B00E0906C00F0906D008091EA01909198
:10180000EB01A091EC01B091ED01C816D906EA06F2
:10181000FB06C0F0622F2F3108F06EE170E080E02F
:1018200090E02AE135E740E050E07AD26C0D7D1D72
:101830008E1D9F1D6093EA017093EB018093EC0174
:101840009093ED01A0901402B0901502F7E1AF164D
:10185000F1E0BF0661F480916900811108C0E09158
:101860001701F0E0E85AFD4FE491E09369008091A0
:101870006900882309F49EC0803821F08F3F09F069
:101880005DC024C02CE330E040E050E06091F50101
:101890007091F6018091F7019091F80141D2C090CA
:1018A0006A00D0906B00E0906C00F0906D006C0DC1
:1018B0007D1D8E1D9F1D609305027093060280930F
:1018C0000702909308021093000223C028EC30E036
:1018D00040E050E06091F5017091F6018091F701D0
:1018E0009091F8011DD2C0906A00D0906B00E090FA
:1018F0006C00F0906D006C0D7D1D8E1D9F1D609322
:101900000502709306028093070290930802D09319
:101910000002C50101969093150280931402D5012F
:101920001196EC91E11103C010926900E4C1F0E05E
:10193000E85AFD4FE491E0936900DDC146E150E0D3
:1019400087FF03C065E470E002C06EE270E084E7E8
:1019500090E06BD284E790E09093020280930102C2
:101960001092660080917400809367008091F50169
:101970009091F601A091F701B091F80140916A00B1
:1019800050916B0060916C0070916D00840F951FF9
:10199000A61FB71F8093050290930602A09307022B
:1019A000B0930802C093000280916900880F809371
:1019B0006900A1C15FD880910302C0906A00D090F5
:1019C0006B00E0906C00F0906D0081111AC028EC63
:1019D00030E040E050E06091F5017091F6018091B7
:1019E000F7019091F8019CD16C0D7D1D8E1D9F1DFE
:1019F0006093050270930602809307029093080299
:101A000050CE8090EA019090EB01A090EC01B09054
:101A1000ED0128EC30E040E050E06091F50170917C
:101A2000F6018091F7019091F8017AD16C0D7D1D3E
:101A30008E1D9F1D86169706A806B90648F460936A
:101A4000050270930602809307029093080208C073
:101A50008092050290920602A0920702B0920802BC
:101A600086E0809300021FCE20916500E22FF0E017
:101A7000E057FF4FE491EBBD8091670090E002C01A
:101A8000959587952A95E2F780FF02C0C39A01C019
:101A9000C398C0906A00D0906B00E0906C00F0900A
:101AA0006D008091050290910602A0910702B0910D
:101AB00008028C159D05AE05BF0508F01CC180917C
:101AC00065008F5F80936500883078F11092650023
:101AD000E0910102F0910202CF010196909302027F
:101AE000809301028181809367008038F1F4109225
:101AF000660024E130E040E050E06091F501709133
:101B0000F6018091F7019091F8010AD16C0D7D1DCD
:101B10008E1D9F1D6093050270930602809307023D
:101B20009093080210930002E6C08091F501909115
:101B3000F601A091F701B091F8018C0D9D1DAE1D2D
:101B4000BF1D2FCEC3981BBCBBC080910002882351
:101B500021F08B3009F0C9C018C0C39880916A0089
:101B600090916B00A0916C00B0916D0040910502C6
:101B700050910602609107027091080248175907B8
:101B80006A077B0708F0B7C055C0C39AE0911402FA
:101B9000F09115028081813359F018F4803369F493
:101BA00005C0823339F0833341F406C06BBC05C0F5
:101BB0007BBC03C04BBC01C05BBC80916A009091B0
:101BC0006B00A0916C00B0916D00409105025091A6
:101BD00006026091070270910802481759076A07C8
:101BE0007B0708F088C0E0911402F09115029F0174
:101BF0002F5F3F4F30931502209314022181211152
:101C000019C042EA50E06DE570E087E191E00DD146
:101C100087E191E090931502809314028FEF9FEF7C
:101C2000DC018093050290930602A0930702B09313
:101C300008025BC08A5A9E4FAF4FBF4F8093050288
:101C400090930602A0930702B09308028BE051C064
:101C500080910002882321F08A3009F049C028C011
:101C6000C398809165008F5F883018F48093650079
:101C700002C0109265008091F5019091F601A0914B
:101C8000F701B091F80140916A0050916B006091AA
:101C90006C0070916D00840F951FA61FB71F809375
:101CA000050290930602A0930702B093080220C099
:101CB000C39AE0916500F0E0E057FF4FE491EBBD7F
:101CC00040916A0050916B0060916C0070916D00C2
:101CD0008091050290910602A0910702B09108023E
:101CE00084179507A607B70730F41092000203C0C7
:101CF0008AE080930002A89509D398C9552700244B
:101D000080FF02C0060E571F660F771F6115710511
:101D100021F096958795009799F7952F802D089536
:101D2000FF27EE27BB27AA2760FF04C0A20FB31F1F
:101D3000E41FF51F220F331F441F551F96958795EB
:101D40007795679589F70097760771F7CF01BD0101
:101D50000895AA1BBB1B51E107C0AA1FBB1FA617F2
:101D6000B70710F0A61BB70B881F991F5A95A9F744
:101D700080959095BC01CD010895A1E21A2EAA1B71
:101D8000BB1BFD010DC0AA1FBB1FEE1FFF1FA2172B
:101D9000B307E407F50720F0A21BB30BE40BF50B28
:101DA000661F771F881F991F1A9469F760957095B1
:101DB000809590959B01AC01BD01CF010895FC0178
:101DC00088279927E89421912032E9F3293010F0EF
:101DD0002E30C8F32B3239F02D3231F4689403C021
:101DE0001AD0820F911D219120532A30C8F31EF47E
:101DF000909581959F4F0895FB01DC014150504023
:101E000048F001900D920020C9F701C01D92415089
:101E10005040E0F70895BC01880F991F880F991F63
:101E2000860F971F880F991F0895DC01CB01FC01D5
:101E3000E199FECF06C0FFBBEEBBE09A31960DB232
:101E40000D9241505040B8F70895E199FECF9FBBE5
:101E50008EBBE09A99278DB30895A8E1B0E042E0E7
:101E600050E0E5CFDC01CB0102C02D9105D04150FF
:101E70005040D8F70895262FE199FECF1CBA9FBB9A
:101E80008EBB2DBB0FB6F894E29AE19A0FBE019675
:0C1E90000895F1DF272FF0CFF894FFCF6A
:021E9C005AFFEB
:00000001FF
