:100000004FC1AEC268C167C166C165C164C163C189
:1000100062C161C1F6C35FC15EC15DC15CC1040361
:1000200009041203450074006800650072006B004B
:100030006900740016034F00700065006E004200F6
:100040006500610063006F006E0012011001FF0087
:100050000008C016DC0500010102000109021200BF
:100060000101008032090400000000000000FF8050
:100070008080808080808080808080E08094FC7C94
:100080003C1C0C0484C4E4F48080808C803280604A
:1000900088A8904028D0082078B048E0A0F068D820
:1000A0005010C030187098B8C88080808080806000
:1000B00088A8904028D0082078B048E0A0F068D800
:1000C0005010C030187098B8C80000000000000040
:1000D0005F00000007000700147F147F14242A7FAC
:1000E0002A12231308646236495522500005030082
:1000F00000001C2241000041221C00082A1C2A0882
:1001000008083E08080050300000080808080800E9
:100110006060000020100804023E5149453E004244
:100120007F400042615149462141454B311814122C
:100130007F1027454545393C4A4949300171090539
:10014000033649494936064949291E00363600001A
:1001500000563600000008142241141414141441EF
:10016000221408000201510906324979413E7E11EC
:1001700011117E7F494949363E414141227F41412B
:10018000221C7F494949417F090901013E414151F2
:10019000327F0808087F00417F41002040413F0135
:1001A0007F081422417F404040407F0204027F7F4D
:1001B0000408107F3E4141413E7F090909063E4146
:1001C00051215E7F09192946464949493101017F7C
:1001D00001013F4040403F1F2040201F7F2018204A
:1001E0007F63140814630304780403615149454391
:1001F00000007F4141020408102041417F000004BB
:10020000020102044040404040000102040020542A
:100210005454787F48444438384444442038444453
:10022000487F3854545418087E0901020814545465
:100230003C7F0804047800447D40002040443D0099
:10024000007F10284400417F40007C041804787C23
:100250000804047838444444387C141414080814FE
:1002600014187C7C080404084854545420043F4467
:1002700040203C4040207C1C2040201C3C40304022
:100280003C44281028440C5050503C4464544C4486
:10029000000836410000007F0000004136080000E1
:1002A00011241FBECFE5D2E0DEBFCDBF10E0A0E637
:1002B000B0E0E0EEF1E102C005900D92AC37B1077D
:1002C000D9F710E0ACE7B0E001C01D92A23FB10742
:1002D000E1F7F6D383C794CE1F93CF93DF9360915A
:1002E000C500635067FD9FC08091C200CCE0D0E0A4
:1002F000C81BD109C753DF4F8091C1008D3209F06F
:1003000080C0683009F08DC083EC8093B5008AE529
:100310008093600010927C008881807631F0CE015D
:1003200095D28F3F09F45CC062C09A811092BE00E2
:100330008981882331F41092BF002EEB30E082E0F7
:100340004AC0853019F49093C6003BC0863081F5D1
:100350008B81813019F48AE490E015C0823019F461
:100360008CE590E010C08330F1F4992341F48EE1E4
:1003700090E09093C4008093C30084E015C0913056
:1003800041F482E290E09093C4008093C30082E144
:100390000BC0923041F484E390E09093C4008093CA
:1003A000C30086E101C080E090E490937C001FC010
:1003B000883059F0893019F49093C80002C08A300F
:1003C00039F02EEB30E080E006C028EC30E002C0CF
:1003D0002EEB30E081E03093C4002093C30007C0CF
:1003E000988197FD8E8190E890937C0007C09F8153
:1003F000992321F49E81981708F4892F8093610036
:1004000010C080917C0087FF0CC0CE01CDD28F3F01
:1004100021F48EE18093600004C0882311F01092D3
:1004200061001092C5008091600084FF4CC08091F3
:1004300061008F3F09F447C0182F893008F018E099
:10044000811B809361008091B50098E88927809393
:10045000B500112361F18091C3009091C4003091E7
:100460007C00212F215036FF0EC030E0A9014954F5
:100470005F4FFC01A6EBB0E064916D933196A41739
:10048000B507D1F70CC0DC0130E0A90149545F4F3A
:10049000E6EBF0E06D916193E417F507D9F72F5F74
:1004A0003F4F280F391F3093C4002093C30086EBC1
:1004B00090E0612F3ED01C5F1C3019F08FEF8093CD
:1004C00061001093600084E196B3957031F481501F
:1004D000D9F71092C6001092C00011E0811110E00F
:1004E00080917D00811729F0112309F497D2109390
:1004F0007D00DF91CF911F91089585B7826085BF00
:100500008BB780648BBF0895A82FB92F80E090E04F
:1005100041E050EA609530E009C02D91822797951F
:10052000879510F084279527305EC8F36F5FA8F396
:100530000895EADF8D939D930895A6E08827992773
:10054000AA9569F00197E1F3B099FCCFB09BFECF7B
:1005500081E09927A6B3019611F0A570D9F7089507
:10056000CF93CFB7CF93C395B09BE9F7B09B0BC0A8
:10057000B09B09C0B09B07C0B09B05C0B09B03C037
:10058000B09B01C0D3C00F92DF93C091C200DD27A2
:10059000C753DF4F012EB09B03C0DF910F90E6CF12
:1005A0002F930F931F934F932FEF4F6F06B300FBC3
:1005B00020F95F933F9350E03BE065C016B30126FE
:1005C000502950FDC89556B3012700FB25F92F731C
:1005D00006B3B1F05027102710FB26F906B22230DF
:1005E000F0F000C016B3012700FB27F901265029BF
:1005F00006B22430E8F54F77206816B30000F6CF36
:1006000050274F7D206206B2102F000000C006B3B5
:1006100000265029102710FB26F906B2E2CF4F7BA7
:1006200006B3206400C0DACF01265029157006B247
:1006300069F14E7F2160012F16B328C00026502992
:100640004D7F06B22260102F29C0012650294B7F12
:1006500006B22460012F2DC016B301265029477F12
:100660002860000006B22EC04F7E06B3206130C065
:10067000422706B3499300265029102706B24FEFB0
:1006800010FB20F9297F16B379F2157059F1012674
:10069000502906B2012700FB21F9237F06B371F22E
:1006A000002650293150D0F006B2102710FB22F955
:1006B000277E16B351F201265029012700FB06B20E
:1006C00023F92F7C49F2000006B3102710FB24F910
:1006D0000026502906B22F7939F270CF10E41ABFE4
:1006E000002717C03B503195C31BD04010E41ABF00
:1006F0000881033CF9F00B34E9F02091C000198126
:10070000110F1213EDCF093651F10D3211F0013EE8
:1007100039F70093C7003F915F914F911F910F915F
:100720002F91DF910F90CAB7C6FD1DCFCF91CFBFDC
:10073000CF9118952091C700222369F31091C5002D
:10074000112321F5343022F13093C5002093C100EC
:100750001091C2003BE0311B3093C20019C00091E0
:10076000C50001309CF40AE53091600034FD11C0F1
:1007700000936000C5EBD0E010C0052710E000C07A
:1007800021C0052710E0C89508BB14C03AE501C098
:1007900032ED032EC0E0D0E032E017B31560C09A0E
:1007A00008B317BB55E020E84FEF20FF052708BB33
:1007B000279517951C3F28F700004552B0F720FFFA
:1007C0000527279508BB17951C3FB8F629913A9540
:1007D00061F70A7F1091C600110F08BBC250D040CC
:1007E00011F01093C00010E41ABF016017B31A7F14
:1007F000402F4A7F54E05A95F1F708BB17BB48BB1E
:100800008ACF1F920F920FB60F9211248F939F934E
:10081000AF93BF938091E0009091E100A091E2003E
:10082000B091E3000196A11DB11D8093E00090936B
:10083000E100A093E200B093E300BF91AF919F91DC
:100840008F910F900FBE0F901F901895CF93DF934D
:10085000FC0181818823A1F482818093B10083818E
:100860008093B20084818093B30085818093B4002B
:1008700081EB90E09093C4008093C30084E091C02A
:100880008130C1F562816093E60080E090E095D40C
:10089000C2E8D0E0CE0163E070E048E250E067D407
:1008A000D093F100C093F00010927E00109281006E
:1008B00010928000E091E600F0E0EE0FFF1FEE598D
:1008C000FF4FC081D181D093EF00C093EE009E0115
:1008D00040E050E060E67AEE80E090E00BD43093A8
:1008E000E5002093E40081E090E0BE0174D4109212
:1008F000E90056C0823029F48091E6008093B1006F
:1009000045C0833061F41092B00086818093AF00BF
:100910008A3208F443C089E28093AF003FC084303C
:1009200069F4868197818932910508F089E222E88D
:1009300030E03093C4002093C30033C08730D9F433
:10094000828190E064E670E0AFD3EC019093EF0019
:100950008093EE009C0140E050E060E67AEE80E09B
:1009600090E0C8D33093E5002093E40081E090E06C
:10097000BE0131D415C0883099F48091EE00909179
:10098000EF0064E670E0A2D36093B10081EB90E0E9
:100990009093C4008093C30081E003C08FEF01C037
:1009A00080E0DF91CF910895CF93DF932091AF0046
:1009B000261708F4622F261B2093AF003091B00059
:1009C000DC0180E008C09D91E82FE30FF0E0EE57D6
:1009D000FF4F90838F5F8617B0F3630F6093B00073
:1009E0002223A1F4C2E8D0E0CE0163E070E048E247
:1009F00050E0DAD3D093F100C093F00010927E0063
:100A000010928100109280001092E90081E0909194
:100A1000AF00911180E0DF91CF910895DF92EF92C6
:100A2000FF920F931F93CF93DF93F894C8E0D0E029
:100A3000FF2490E8E92EDE2CDF0CD1BE7EDD082FEE
:100A4000192F89E0043318070CF4FD2CE694219744
:100A500091F78F2D815081BFCF2DD0E0219610C00E
:100A60006CDD8453994097FF03C0909581959F4F0B
:100A70008017910714F4F1B68C0181B78F5F81BFA5
:100A800081B790E0C817D9075CF7F1BE789461B7D9
:100A90008CE290E092D3DF91CF911F910F91FF9064
:100AA000EF90DF9008959C0140E050E060E67AEE20
:100AB00080E090E01FD33093E5002093E400089598
:100AC0005F926F927F928F929F92AF92BF92CF92DE
:100AD000DF92EF92FF920F931F93CF93DF938CE2FD
:100AE00090E055D38F3F09F081BF2EE088E190E080
:100AF0000FB6F894A89581BD0FBE21BDFEDCB89A53
:100B000080E007C0A895ECE1F0E13197F1F700C073
:100B100000008150B9F7B8988AB582608ABD84E038
:100B200083BF80E889BD89B7806189BF81E080BFCC
:100B300080E68CBD1BBC8FEF8DBD96E097BDBC9A47
:100B4000C498BB9AC39A8BBDC39AC2E8D0E089E22D
:100B5000FE0111928A95E9F7D093F100C093F0005D
:100B600080E090E014D38093E6001092E90081E0E9
:100B700090E015D39093EF008093EE009C0140E04D
:100B800050E060E67AEE80E090E0B4D23093E50089
:100B90002093E400CE0163E070E048E250E0E7D249
:100BA0007894F7E09F2EE6E08E2E5E01DC2EEB2C93
:100BB00075E0F72E63E0B62E54E6A52E44E0742EC1
:100BC0006624639432E0532ECCEDD5E029E0C22EAA
:100BD000F8948091E0009091E100A091E200B09142
:100BE000E3008093AB009093AC00A093AD00B09372
:100BF000AE0078942091E600273009F411C1273027
:100C000020F0283009F047C2F6C18091E900833016
:100C100020F4813008F0C4C004C0863008F041C21E
:100C2000FDC08091F0009091F10020E082389207A1
:100C300061F480917E00882341F4E0918200F0E02D
:100C4000E25BFF4FE491E0937E0040917E004423FD
:100C500009F492C0403821F04F3F09F057C020C03E
:100C60008091E4009091E50063E070E01DD2A0E087
:100C7000B0E02091AB003091AC004091AD005091BC
:100C8000AE00820F931FA41FB51F8093EA009093BC
:100C9000EB00A093EC00B093ED007092E9001FC050
:100CA0008091E4009091E50067E070E0FDD1A0E064
:100CB000B0E02091AB003091AC004091AD0050917C
:100CC000AE00820F931FA41FB51F8093EA0090937C
:100CD000EB00A093EC00B093ED00F092E900E091FE
:100CE000F000F091F100CF0101969093F100809314
:100CF000F000E181EE2319F410927E00D2C1F0E001
:100D0000E25BFF4FE491E0937E00CBC18091E40071
:100D10009091E5000091AB001091AC002091AD00E6
:100D20003091AE0047FF14C063E070E0BDD1A0E099
:100D3000B0E0800F911FA21FB31F8093EA00909331
:100D4000EB00A093EC00B093ED005092E90010C0CE
:100D5000A0E0B0E0800F911FA21FB31F8093EA00B4
:100D60009093EB00A093EC00B093ED006092E9004B
:100D7000440F40937E0095C182E890E063E070E00C
:100D800048E250E0F4D1D092F000E092F1001092ED
:100D90007E008091E4009091E50067E070E087C0FC
:100DA0002350243018F0C39AABBC02C0C39A1BBCBA
:100DB0002091AB003091AC004091AD005091AE005D
:100DC0008091EA009091EB00A091EC00B091ED00D1
:100DD00082179307A407B50708F063C18091E60066
:100DE000833018F0873028F402C0C39A01C0C3983A
:100DF0001BBC8091E4009091E500A0E0B0E0820F80
:100E0000931FA41FB51F8093EA009093EB00A0935B
:100E1000EC00B093ED00B092E90043C11BBC20C1CF
:100E20008091E900873030F4853008F0E1C08823F4
:100E300029F02BC1873009F028C190C0A091F000A3
:100E4000B091F100309180008C9190E065E070E00D
:100E50002BD1FC01E30FF11DE75DFF4FE491E0931F
:100E60007F003F5F30938000363008F45AC0109204
:100E70008000CD0101969093F1008093F0001196CF
:100E80008C911197882369F582E890E063E070E027
:100E900048E250E06CD1D092F000E092F100109264
:100EA0007F008091E4009091E50064EF71E0FCD058
:100EB000A0E0B0E02091AB003091AC004091AD00DB
:100EC0005091AE00820F931FA41FB51F8093EA00BC
:100ED0009093EB00A093EC00B093ED00F092E9004A
:100EE000E0C08091E4009091E5006AE070E0DCD021
:100EF000A0E0B0E02091AB003091AC004091AD009B
:100F00005091AE00820F931FA41FB51F8093EA007B
:100F10009093EB00A093EC00B093ED008092E90079
:100F2000C0C08091E4009091E500A0E0B0E0409165
:100F3000AB005091AC006091AD007091AE00840F99
:100F4000951FA61FB71F8093EA009093EB00A09314
:100F5000EC00B093ED002093E900A3C02091810044
:100F6000E22FF0E0EC58FF4F80818BBD80917F0035
:100F700090E002C0959587952A95E2F780FF02C020
:100F8000C39A01C0C3982091AB003091AC0040914E
:100F9000AD005091AE008091EA009091EB00A091DD
:100FA000EC00B091ED0082179307A407B50708F095
:100FB00078C0809181008F5F80938100883018F025
:100FC0001092810062C08091E4009091E500A0E061
:100FD000B0E0820F931FA41FB51F8093EA00909387
:100FE000EB00A093EC00B093ED009092E90059C0A3
:100FF0001BBCC39835C08091E900882321F089305B
:1010000009F046C025C0C398809181008F5F80930E
:101010008100883010F0109281008091E40090915E
:10102000E500A0E0B0E02091AB003091AC00409131
:10103000AD005091AE00820F931FA41FB51F809387
:10104000EA009093EB00A093EC00B093ED0020C079
:10105000C39AE0918100F0E0EC58FF4F80818BBD96
:101060002091AB003091AC004091AD005091AE00AA
:101070008091EA009091EB00A091EC00B091ED001E
:1010800082179307A407B50760F41092E90009C01E
:10109000C092E90006C01092E600D093E500C0932C
:1010A000E400A89519D994CD5527002480FF02C0EB
:1010B000060E571F660F771F6115710521F0969573
:1010C0008795009799F7952F802D0895AA1BBB1B34
:1010D00051E107C0AA1FBB1FA617B70710F0A61B38
:1010E000B70B881F991F5A95A9F780959095BC0159
:1010F000CD01089597FB092E05260ED057FD04D08B
:1011000014D00AD0001C38F45095409530952195A4
:101110003F4F4F4F5F4F0895F6F79095809570952C
:1011200061957F4F8F4F9F4F0895A1E21A2EAA1B02
:10113000BB1BFD010DC0AA1FBB1FEE1FFF1FA21787
:10114000B307E407F50720F0A21BB30BE40BF50B84
:10115000661F771F881F991F1A9469F7609570950D
:10116000809590959B01AC01BD01CF010895DC01F4
:10117000CB01FC01E199FECF06C0FFBBEEBBE09ABC
:1011800031960DB20D9241505040B8F70895E19953
:10119000FECF9FBB8EBBE09A99278DB30895A8E13F
:1011A000B0E042E050E0E5CFDC01CB0102C02D9180
:1011B00005D041505040D8F70895262FE199FECF31
:1011C0001CBA9FBB8EBB2DBB0FB6F894E29AE19A76
:1011D0000FBE01960895F1DF272FF0CFF894FFCFCF
:1011E0005AFF280014000C00280014000C00F40121
:0C11F0002C01D007FCB98C55351700000D
:00000001FF
