:1000000061C1C0C27AC179C178C177C176C175C1F9
:1000100074C173C109C771C170C16FC16EC167C5B9
:100020007AC5EDC5EFC5FBC508C613C627C645C6CC
:100030004EC674C676C686C691C697C699C6A4C66D
:10004000B2C6040309041203450074006800650089
:1000500072006B006900740016034F0070006500A9
:100060006E0042006500610063006F006E001201C7
:100070001001FF000008C016DC05000101020001AC
:100080000902120001010080320904000000000092
:100090000000FF808080808080808080808080E081
:1000A0008094FC7C3C1C0C0484C4E4F48080808C30
:1000B0008032806088A8904028D0082078B048E03E
:1000C000A0F068D85010C030187098B8C8808080F0
:1000D0008080806088A8904028D0082078B048E0D0
:1000E000A0F068D85010C030187098B8C800000050
:1000F000000000005F00000007000700147F147F6D
:1001000014242A7F2A122313086462364955225088
:100110000005030000001C2241000041221C0008D1
:100120002A1C2A0808083E08080050300000080869
:10013000080808006060000020100804023E5149D1
:10014000453E00427F400042615149462141454BB6
:10015000311814127F1027454545393C4A4949302A
:1001600001710905033649494936064949291E00E6
:1001700036360000005636000000081422411414E0
:10018000141414412214080002015109063249795D
:10019000413E7E1111117E7F494949363E41414120
:1001A000227F4141221C7F494949417F09090101C0
:1001B0003E414151327F0808087F00417F410020C5
:1001C00040413F017F081422417F404040407F0270
:1001D00004027F7F0408107F3E4141413E7F0909B0
:1001E00009063E4151215E7F091929464649494980
:1001F0003101017F01013F4040403F1F2040201F4F
:100200007F2018207F6314081463030478040361BB
:100210005149454300007F414102040810204141FB
:100220007F000004020102044040404040000102FF
:10023000040020545454787F48444438384444449B
:1002400020384444487F3854545418087E09010229
:10025000081454543C7F0804047800447D40002076
:1002600040443D00007F10284400417F40007C0452
:100270001804787C0804047838444444387C141406
:100280001408081414187C7C0804040848545454B6
:1002900020043F4440203C4040207C1C2040201C47
:1002A0003C4030403C44281028440C5050503C44C2
:1002B00064544C44000836410000007F00000041B7
:1002C0003608000011241FBECFE5D2E0DEBFCDBF4F
:1002D00010E0A0E6B0E0E2EFFDE102C005900D9273
:1002E000A438B107D9F712E0A4E8B0E001C01D922C
:1002F000A832B107E1F7CED57ACD82CE1F93CF9346
:10030000DF936091EE01635067FD9FC08091EB0128
:10031000CCE0D0E0C81BD109CE50DE4F8091EA017D
:100320008D3209F080C0683009F08DC083EC809375
:10033000DE018AE5809360001092840088818076D7
:1003400031F0CE01C0D38F3F09F45CC062C09A8106
:100350001092E7018981882331F41092E80127EE99
:1003600031E082E04AC0853019F49093EF013BC040
:10037000863081F58B81813019F48EE690E015C0CE
:10038000823019F480E890E010C08330F1F49923B2
:1003900041F482E490E09093ED018093EC0184E0DD
:1003A00015C0913041F486E490E09093ED01809384
:1003B000EC0182E10BC0923041F488E590E090932B
:1003C000ED018093EC0186E101C080E090E4909320
:1003D00084001FC0883059F0893019F49093F101DE
:1003E00002C08A3039F027EE31E080E006C021EF0C
:1003F00031E002C027EE31E081E03093ED0120933F
:10040000EC0107C0988197FD8E8190E8909384005D
:1004100007C09F81992321F49E81981708F4892FA2
:100420008093610010C08091840087FF0CC0CE01D2
:10043000FAD18F3F21F48EE18093600004C08823BD
:1004400011F0109261001092EE018091600084FF23
:100450004CC0809161008F3F09F447C0182F89304C
:1004600008F018E0811B809361008091DE0198E81C
:1004700089278093DE01112361F18091EC01909135
:10048000ED0130918400212F215036FF0EC030E065
:10049000A90140525E4FFC01AFEDB1E064916D9354
:1004A0003196A417B507D1F70CC0DC0130E0A901E3
:1004B00040525E4FEFEDF1E06D916193E417F50767
:1004C000D9F72F5F3F4F280F391F3093ED0120934D
:1004D000EC018FED91E0612F3ED01C5F1C3019F0D4
:1004E0008FEF809361001093600084E196B3957064
:1004F00031F48150D9F71092EF011092E90111E027
:10050000811110E080918500811729F0112309F4F1
:10051000E7D110938500DF91CF911F91089585B7A2
:10052000826085BF8BB780648BBF0895A82FB92FD9
:1005300080E090E041E050EA609530E009C02D9104
:1005400082279795879510F084279527305EC8F30A
:100550006F5FA8F30895EADF8D939D930895A6E059
:1005600088279927AA9569F00197E1F3B099FCCF04
:10057000B09BFECF81E09927A6B3019611F0A5703C
:10058000D9F70895CF93CFB7CF93C395B09BE9F731
:10059000B09B0BC0B09B09C0B09B07C0B09B05C00F
:1005A000B09B03C0B09B01C0D3C00F92DF93C0913A
:1005B000EB01DD27CE50DE4F012EB09B03C0DF9153
:1005C0000F90E6CF2F930F931F934F932FEF4F6F03
:1005D00006B300FB20F95F933F9350E03BE065C01A
:1005E00016B30126502950FDC89556B3012700FBCC
:1005F00025F92F7306B3B1F05027102710FB26F909
:1006000006B22230F0F000C016B3012700FB27F934
:100610000126502906B22430E8F54F77206816B33A
:100620000000F6CF50274F7D206206B2102F000049
:1006300000C006B300265029102710FB26F906B289
:10064000E2CF4F7B06B3206400C0DACF01265029E9
:10065000157006B269F14E7F2160012F16B328C0D4
:10066000002650294D7F06B22260102F29C0012696
:1006700050294B7F06B22460012F2DC016B30126EE
:100680005029477F2860000006B22EC04F7E06B377
:10069000206130C0422706B3499300265029102715
:1006A00006B24FEF10FB20F9297F16B379F21570CF
:1006B00059F10126502906B2012700FB21F9237FB9
:1006C00006B371F2002650293150D0F006B210273F
:1006D00010FB22F9277E16B351F20126502901277B
:1006E00000FB06B223F92F7C49F2000006B3102765
:1006F00010FB24F90026502906B22F7939F270CF69
:1007000010E41ABF002717C03B503195C31BD040DF
:1007100010E41ABF0881033CF9F00B34E9F0209192
:10072000E9011981110F1213EDCF093651F10D3284
:1007300011F0013E39F70093F0013F915F914F9125
:100740001F910F912F91DF910F90CAB7C6FD1DCF5A
:10075000CF91CFBFCF9118952091F001222369F35B
:100760001091EE01112321F5343022F13093EE0186
:100770002093EA011091EB013BE0311B3093EB0138
:1007800019C00091EE0101309CF40AE5309160003F
:1007900034FD11C000936000CEEDD1E010C00527FC
:1007A00010E000C021C0052710E0C89508BB14C0A8
:1007B0003AE501C032ED032EC0E0D0E032E017B3DD
:1007C0001560C09A08B317BB55E020E84FEF20FF33
:1007D000052708BB279517951C3F28F700004552B1
:1007E000B0F720FF0527279508BB17951C3FB8F6E3
:1007F00029913A9561F70A7F1091EF01110F08BB1B
:10080000C250D04011F01093E90110E41ABF01600A
:1008100017B31A7F402F4A7F54E05A95F1F708BB6F
:1008200017BB48BB8ACF2091D801261708F4622F46
:10083000261B2093D8013091D901DC0180E008C04B
:100840009D91E82FE30FF0E0EF5CFE4F90838F5F08
:100850008617B0F3630F6093D9012223D9F58091F5
:100860001302813061F0813028F0823079F08330DA
:1008700079F527C081E391E065E070E004C081E391
:1008800091E06EE270E048E250E021C080E090E04C
:1008900061E371E041E050E05ADA80E090E03ADA5A
:1008A000813019F08230A1F405C082E391E06BEF52
:1008B00070E004C082E391E062E171E046E150E063
:1008C00006C081E391E067E570E042EA50E075DA46
:1008D00010921B0281E09091D801911180E008955F
:1008E000DF92EF92FF920F931F93CF93DF93F894D1
:1008F000C8E0D0E0FF2480E8E82EDE2CDF0CD1BE7B
:100900002EDE082F192F89E0043318070CF4FD2C74
:10091000E694219791F78F2D815081BFCF2DD0E0A4
:10092000219610C01CDE8453994097FF03C0909518
:1009300081959F4F8017910714F4F1B68C0181B710
:100940008F5F81BF81B790E0C817D9075CF7F1BE10
:10095000789461B787E591E039DADF91CF911F9103
:100960000F91FF90EF90DF9008959B01AC0160EC38
:1009700077E289E090E0ACD920931402309315021D
:10098000409316025093170208958F3108F08EE1BC
:10099000682F70E080E090E02AE135E740E050E029
:1009A0006AD90895EF92FF920F931F93CF93DF932D
:1009B00080911802CEE8D0E08A30E9F4CE0167E5F4
:1009C00070E042EA50E0DCD9D0932702C0932602BF
:1009D00010928A008091860090918700A0918800F3
:1009E000B091890080931F0290932002A09321026E
:1009F000B09322025FC0CE0165E070E048E250E0B3
:100A0000BFD9D0932702C093260210928A00E090AB
:100A10008600F09087000091880010918900609115
:100A20001E026F3108F06EE170E080E090E02AE194
:100A300035E740E050E01FD96E0D7F1D801F911FEC
:100A400060930A0270930B0280930C0290930D0244
:100A500010928D0010928C00E0911802E83021F481
:100A600081E090E0A5D907C0F0E0EE0FFF1FEE593E
:100A7000FF4F8081918190932502809324022091E1
:100A800024023091250240E050E060EC77E289E0FA
:100A900090E01ED920931402309315024093160261
:100AA00050931702E0921F02F0922002009321025D
:100AB0001093220210921B02DF91CF911F910F9190
:100AC000FF90EF900895EF92FF920F931F93CF93B3
:100AD000DF93E82EE7017E01F92EE701E981F0E0DE
:100AE000E231F10508F060C1E15FFF4F09948A81AE
:100AF0008093DA018B818093DB018C818093DC0110
:100B00008D818093DD018AED91E09093ED018093DA
:100B1000EC0114E04AC16A816093180280E090E021
:100B200055D980911802CEE8D0E08A3031F4CE0158
:100B300067E570E042EA50E005C0CE0165E070E094
:100B400048E250E01DD9D0932702C09326021092AC
:100B50008A00E0908600F090870000918800109154
:100B6000890060911E026F3108F06EE170E080E054
:100B700090E02AE135E740E050E07DD86E0D7F1D22
:100B8000801F911F60930A0270930B0280930C02E6
:100B900090930D0210928D0010928C00E09118023B
:100BA000E83021F481E090E003D907C0F0E0EE0FD7
:100BB000FF1FEE59FF4F8081918190932502809312
:100BC0002402209124023091250240E050E060ECA4
:100BD00077E289E090E07CD82093140230931502EC
:100BE0004093160250931702E0921F02F0922002E7
:100BF000009321021093220210921B02D5C0809113
:100C00001802A2C01092D9018E818093D801843A33
:100C100018F083EA8093D80110921302C2C08E812B
:100C20009F818932910510F4182F01C019E2C1E3A8
:100C3000D1E0CE0165E070E019C01092D9018E813B
:100C40008093D801843A18F083EA8093D80181E038
:100C5000A6C08E819F818932910510F4182F01C0A2
:100C600019E2C1E3D1E0CE016EE270E048E250E06B
:100C700087D8D093ED01C093EC0197C08A8190E0B2
:100C800068EE73E0E6D7EC0190932502809324028E
:100C90009C0140E050E060EC77E289E090E018D8F9
:100CA00020931402309315024093160250931702BA
:100CB00081E090E0BE0198D877C0809124029091A5
:100CC000250268EE73E0F0D76093DA013FC083E05D
:100CD00090E06A817BD86A8160931E026F3108F0D0
:100CE0006EE170E080E090E02AE135E740E050E01E
:100CF000C2D72091860030918700409188005091A2
:100D00008900620F731F841F951F60930A027093FE
:100D10000B0280930C0290930D0246C080911E023C
:100D200013C08A81813031F4809309028AEF90E008
:100D300061E019C08230C1F5809309028AEF90E02A
:100D400062E011C0809109028093DA018AED91E09E
:100D50009093ED018093EC0111E027C06A816093CC
:100D6000230284E090E032D81FC080912302ECCFB0
:100D70001092D9018E818093D801843A18F083EAC9
:100D80008093D80182E00BC01092D9018E818093AC
:100D9000D801843A18F083EA8093D80183E08093E5
:100DA00013021FEF02C0FEDD10E0812FDF91CF9113
:100DB0001F910F91FF90EF900895B19911C080910C
:100DC000D6019091D7018330910528F40196909334
:100DD000D7018093D6011092D5011092D40110C092
:100DE0008091D4019091D5018330910528F401962A
:100DF0009093D5018093D4011092D7011092D6011F
:100E00008091D6019091D7018330910518F081E04F
:100E1000809312028091D4019091D5018330910585
:100E200010F01092120208951F920F920FB60F92B7
:100E300011242F933F934F935F936F937F938F93DF
:100E40009F93AF93BF93EF93FF9380910E02909186
:100E50000F02A0911002B09111020196A11DB11DC7
:100E600080930E0290930F02A0931002B093110290
:100E7000A4DFFF91EF91BF91AF919F918F917F91EF
:100E80006F915F914F913F912F910F900FBE0F90F7
:100E90001F9018952F923F924F925F926F927F9280
:100EA0008F929F92AF92BF92CF92DF92EF92FF927A
:100EB0000F931F93CF93DF9387E591E071D78F3F17
:100EC00009F081BF2EE088E190E00FB6F894A89574
:100ED00081BD0FBE21BD23DBB89A80E007C0A89575
:100EE000ACE1B0E11197F1F700C000008150B9F713
:100EF000B8988AB582608ABD84E083BF80E889BDE6
:100F000089B7806189BF81E080BF80E68CBD1BBC52
:100F10008FEF8DBD96E097BDBC9AC498BB9AC39ADB
:100F2000B998C19A8BBDC39ACEE8D0E089E2FE01A0
:100F300011928A95E9F7D0932702C093260280E0A8
:100F400090E02ED78093180210921B028AEF90E057
:100F500027D7182F8093090284E090E021D780934F
:100F60002302113021F4CE0165E070E005C012309B
:100F700031F4CE016EE270E048E250E001D783E048
:100F800090E00ED780931E02682F8F3108F06EE13B
:100F900070E080E090E02AE135E740E050E06BD679
:100FA00020918600309187004091880050918900FF
:100FB000620F731F841F951F60930A0270930B02C8
:100FC00080930C0290930D02EDDC789408E0902E53
:100FD00017E0712ECEE8D0E0B5E08B2E6624639446
:100FE000A3E02A2EF6E05F2EEBE04E2E7AE0372EBD
:100FF000F89480910E0290910F02A0911002B0918E
:1010000011028093860090938700A0938800B0938C
:1010100089007894809112028111C4DC2091180219
:10102000293009F4EBC1293050F02B3009F442C3C8
:101030002B3008F424C52C3009F0FAC5A7C58091DF
:101040001B02833020F4813008F079C107C087305B
:1010500008F4BFC18D3009F0F9C56FC1C398609124
:101060001E02662309F45CC0E0908600F0908700C1
:10107000009188001091890080910A0290910B02E2
:10108000A0910C02B0910D02E816F9060A071B07A1
:1010900008F446C08091260290912702F0E08E3835
:1010A0009F07F1F52830E1F16F3108F06EE170E053
:1010B00080E090E02AE135E740E050E0DCD56E0DBD
:1010C0007F1D801F911F60930A0270930B02809313
:1010D0000C0290930D022091140230911502409160
:1010E000160250911702DA01C90163E0880F991FB7
:1010F000AA1FBB1F6A95D1F7821B930BA40BB50BDC
:101100008E0D9F1DA01FB11F80931F029093200280
:10111000A0932102B09322022DE020931B0296C5DA
:10112000809126029091270230E08E38930761F477
:1011300080918A00882341F4E0918E00F0E0EE581F
:10114000FF4FE491E0938A0060918A00662309F4DE
:1011500086C0603821F06F3F09F041C02AC08091FD
:10116000140290911502A0911602B09117029C01F1
:10117000AD01220F331F441F551F280F391F4A1F6F
:101180005B1F8091860090918700A0918800B091AC
:101190008900280F391F4A1F5B1F20931F023093BD
:1011A0002002409321025093220284E080931B028C
:1011B0002EC38091140290911502A0911602B09155
:1011C00017029C01AD01F3E0220F331F441F551F8E
:1011D000FA95D1F7281B390B4A0B5B0B02C3E09041
:1011E0008600F0908700009188001091890020917E
:1011F000140230911502409116025091170267FFB8
:101200001AC0DA01C901880F991FAA1FBB1F820FDC
:10121000931FA41FB51F8E0D9F1DA01FB11F80938C
:101220001F0290932002A0932102B093220292E029
:1012300090931B0210C0DA01C9018E0D9F1DA01FE3
:10124000B11F80931F0290932002A0932102B093BC
:10125000220260921B02660F60938A00F7C480919D
:101260000902813029F48EE890E065E070E006C064
:10127000823039F48EE890E06EE270E048E250E0AF
:101280007FD5D0932702C093260210928A008091C6
:101290001E02E0908600F090870000918800109177
:1012A000890020911402309115024091160250914C
:1012B00017028823D1F4DA01C90173E0880F991F5E
:1012C000AA1FBB1F7A95D1F7821B930BA40BB50BFA
:1012D0008E0D9F1DA01FB11F80931F0290932002AF
:1012E000A0932102B093220224C3A0900A02B090DE
:1012F0000B02C0900C02D0900D02DA01C90163E02C
:10130000880F991FAA1FBB1F6A95D1F7821B930BE9
:10131000A40BB50B8E0D9F1DA01FB11FA816B906FB
:10132000CA06DB0608F02FC380931F0290932002A9
:10133000A0932102B09322022EC31BBC5DC0245097
:10134000253028F0C39A809123028BBD02C0C39A36
:101350001BBC2091860030918700409188005091FD
:10136000890080911F0290912002A0912102B091EA
:10137000220282179307A407B50708F067C480917B
:101380001802843018F0893028F402C0C39A01C0D2
:10139000C3981BBC20911402309115024091160293
:1013A000509117028091860090918700A09188004B
:1013B000B0918900280F391F4A1F5B1F20931F021D
:1013C00030932002409321025093220220921B026C
:1013D0003DC41BBC863009F46BC1243009F468C1DC
:1013E000253009F465C1263009F462C1273009F4BB
:1013F0005FC1283009F45CC1C39AFFC380911B020E
:10140000853009F454C1863018F4882341F00AC4A9
:10141000873009F44CC1883009F004C4FCC06091E5
:101420001E02662361F1E0908600F0908700009133
:1014300088001091890080910A0290910B02A0917E
:101440000C02B0910D02E816F9060A071B07B8F066
:101450006F3108F06EE170E080E090E02AE135E75E
:1014600040E050E008D46E0D7F1D801F911F6093F7
:101470000A0270930B0280930C0290930D02A091CC
:101480002602B0912702E0E0AE38BE0799F48091C1
:101490008B00882379F480918E0090E065E070E005
:1014A000D8D3FC01E35BFF4F60928C00E491E093A2
:1014B0008B0094C020918C008C9190E065E070E0EE
:1014C000C8D3FC01E20FF11DE35BFF4F2F5F2093B8
:1014D0008C00E491E0938B00263008F47FC01092DA
:1014E0008C00CD01019690932702809326021196DD
:1014F0008C911197882309F04DC0809109028130A9
:1015000029F48EE890E065E070E006C0823039F49E
:101510008EE890E06EE270E048E250E031D4D09383
:101520002702C093260210928B0080911E02E09049
:101530008600F09087000091880010918900882330
:1015400009F4DEC1A0900A02B0900B02C0900C0218
:10155000D0900D02609114027091150280911602D4
:101560009091170228EC30E040E050E084D36E0DFB
:101570007F1D801F911FA616B706C806D90608F45E
:10158000D0C1A0921F02B0922002C0922102D0923C
:101590002202CFC16091140270911502809116024F
:1015A0009091170224E130E040E050E064D39B01C9
:1015B000AC018091860090918700A0918800B09145
:1015C0008900280F391F4A1F5B1F20931F02309389
:1015D000200240932102509322023EC22091140225
:1015E00030911502409116025091170280918600A9
:1015F00090918700A0918800B0918900280F391F31
:101600004A1F5B1F20931F02309320024093210248
:101610005093220249C020918D00E22FF0E0E4585F
:10162000FF4F80818BBD80918B0090E002C095952B
:1016300087952A95E2F780FF02C0C39A01C0C3983C
:101640002091860030918700409188005091890058
:1016500080911F0290912002A0912102B09122025C
:1016600082179307A407B50708F0F0C280918D0098
:101670008F5F80938D00883018F010928D00D2C259
:101680008091140290911502A0911602B091170258
:10169000820F931FA41FB51F80931F0290932002F7
:1016A000A0932102B093220290921B02CFC21BBCD6
:1016B000C398A3C280911B02853009F4DDC1863036
:1016C00018F4882341F0AEC2873009F4D5C18830C0
:1016D00009F0A8C263C1C3981BBC60911E026623B7
:1016E00061F1E0908600F0908700009188001091F1
:1016F000890080910A0290910B02A0910C02B09196
:101700000D02E816F9060A071B07B8F06F3108F05A
:101710006EE170E080E090E02AE135E740E050E0E3
:10172000AAD26E0D7F1D801F911F60930A027093D5
:101730000B0280930C0290930D02809126029091EF
:101740002702F0E08E389F0761F480918A00882399
:1017500041F4E0918E00F0E0EE58FF4FE491E09309
:101760008A0080918A00882309F4A6C0803821F07D
:101770008F3F09F063C026C060911402709115027A
:1017800080911602909117022CE330E040E050E087
:1017900072D29B01AC018091860090918700A0914C
:1017A0008800B0918900280F391F4A1F5B1F2093C2
:1017B0001F02309320024093210250932202709224
:1017C0001B0225C0609114027091150280911602CF
:1017D0009091170228EC30E040E050E04CD29B01A1
:1017E000AC018091860090918700A0918800B09113
:1017F0008900280F391F4A1F5B1F20931F02309357
:101800002002409321025093220280921B02E09119
:101810002602F0912702CF01019690932702809330
:101820002602E181EE2319F410928A000FC2F0E043
:10183000EE58FF4FE491E0938A0008C287FF05C08D
:1018400081E391E06BEF70E004C081E391E062E13D
:1018500071E046E150E094D221E331E030931D0283
:1018600020931C0210928C008091310180938B0098
:1018700020911402309115024091160250911702E6
:101880008091860090918700A0918800B091890096
:10189000280F391F4A1F5B1F20931F02309320021D
:1018A000409321025093220290921B0280918A0061
:1018B000880F80938A00CAC180910902813029F47F
:1018C0008EE890E065E070E006C0823039F48EE882
:1018D00090E06EE270E048E250E052D2D0932702EE
:1018E000C093260210928A0080911E02E09086002A
:1018F000F090870000918800109189008823E1F41E
:101900006091140270911502809116029091170255
:1019100028EC30E040E050E0AED16E0D7F1D801F1E
:10192000911F60931F027093200280932102909375
:10193000220280921B028AC1A0900A02B0900B0280
:10194000C0900C02D0900D026091140270911502AB
:10195000809116029091170228EC30E040E050E0B0
:101960008AD16E0D7F1D801F911FA616B706C8066F
:10197000D90648F460931F027093200280932102DD
:101980009093220208C0A0921F02B0922002C0923F
:101990002102D092220250921B0258C120918D0048
:1019A000E22FF0E0E458FF4F80818BBD80918B00E7
:1019B00090E002C0959587952A95E2F780FF02C0D6
:1019C000C39A01C0C398E0908600F0908700009110
:1019D00088001091890080911F0290912002A091AF
:1019E0002102B09122028E159F05A007B10708F0D1
:1019F0002DC180918D008F5F80938D00883078F1AC
:101A000010928D00E0911C02F0911D02CF01019611
:101A100090931D0280931C02818180938B008038FB
:101A2000F1F410928C006091140270911502809173
:101A300016029091170224E130E040E050E01BD103
:101A40006E0D7F1D801F911F60931F0270932002F7
:101A5000809321029093220270921B02F7C0809122
:101A6000140290911502A0911602B09117028E0DEA
:101A70009F1DA01FB11F10CEC3981BBCBEC080917C
:101A80001B02882321F08B3009F0CCC018C0C3980A
:101A90002091860030918700409188005091890004
:101AA00080911F0290912002A0912102B091220208
:101AB00082179307A407B50708F0C8C056C0C39A99
:101AC000E0912602F09127028081813361F0823318
:101AD00018F4803381F405C0823341F0833359F424
:101AE00008C01BBC08C037E13BBD05C085E38BBD0A
:101AF00002C095E59BBD2091860030918700409102
:101B000088005091890080911F0290912002A0913D
:101B10002102B091220282179307A407B50708F0AB
:101B200095C0E0912602F0912702CF010196909393
:101B300027028093260281818823B9F48EE890E001
:101B400067E570E042EA50E01BD1D0932702C093D2
:101B500026028FEF9FEFDC0180931F0290932002FB
:101B6000A0932102B09322025DC0DA01C9018A5A12
:101B70009E4FAF4FBF4F80931F0290932002A093C0
:101B80002102B093220240921B0260C080911B028E
:101B9000882321F08A3009F048C027C0C39880917B
:101BA0008D008F5F80938D00883010F010928D0033
:101BB00020911402309115024091160250911702A3
:101BC0008091860090918700A0918800B091890053
:101BD000280F391F4A1F5B1F20931F0230932002DA
:101BE000409321025093220220C0C39AE0918D00BD
:101BF000F0E0E458FF4F80818BBD2091860030914A
:101C00008700409188005091890080911F02909137
:101C10002002A0912102B091220282179307A4070B
:101C2000B507A0F410921B0211C030921B020EC027
:101C3000109218028CED95E0A0E0B0E080931402C1
:101C400090931502A0931602B0931702A89556D34D
:101C5000CFC95527002480FF02C0060E571F660F0C
:101C6000771F6115710521F096958795009799F773
:101C7000952F802D0895FF27EE27BB27AA2760FF09
:101C800004C0A20FB31FE41FF51F220F331F441F10
:101C9000551F969587957795679589F700977607ED
:101CA00071F7CF01BD010895AA1BBB1B51E107C00D
:101CB000AA1FBB1FA617B70710F0A61BB70B881FDC
:101CC000991F5A95A9F780959095BC01CD0108956B
:101CD000A1E21A2EAA1BBB1BFD010DC0AA1FBB1F30
:101CE000EE1FFF1FA217B307E407F50720F0A21BA2
:101CF000B30BE40BF50B661F771F881F991F1A940F
:101D000069F760957095809590959B01AC01BD0138
:101D1000CF010895FC0188279927E894219120326A
:101D2000E9F3293010F02E30C8F32B3239F02D3280
:101D300031F4689403C01AD0820F911D2191205371
:101D40002A30C8F31EF4909581959F4F0895FB01AA
:101D5000DC014150504048F001900D920020C9F73D
:101D600001C01D9241505040E0F70895BC01880F1A
:101D7000991F880F991F860F971F880F991F089525
:101D8000DC01CB01FC01E199FECF06C0FFBBEEBB3D
:101D9000E09A31960DB20D9241505040B8F7089537
:101DA000E199FECF9FBB8EBBE09A99278DB3089532
:101DB000A8E1B0E042E050E0E5CFDC01CB0102C099
:101DC0002D9105D041505040D8F70895262FE19924
:101DD000FECF1CBA9FBB8EBB2DBB0FB6F894E29A08
:101DE000E19A0FBE01960895F1DF272FF0CFF89406
:021DF000FFCF23
:101DF2005AFF9001C80078000A009001C8007800DC
:101E02000A008813AC0DD606A00F1027FCB98C551A
:041E12003517000080
:00000001FF
